:020000040800F2
:10000000F80C01206501000887B100088F7E000808
:1000100085B100082B280008E5EA00080000000070
:1000200000000000000000000000000013DF0008D6
:10003000A12A000800000000CB01000811E0000820
:100040007F0100087F0100087F0100087F01000890
:100050007F0100087F0100087F0100087F01000880
:100060007F0100087F0100087F0100087F01000870
:100070007F0100087F0100087F0100087F01000860
:100080007F0100087F0100087F0100087F01000850
:100090007F0100087F0100087F010008AD380008DB
:1000A0007F0100087F0100087F0100087F01000830
:1000B00005E300087F0100083DE400087F01000817
:1000C0007F0100087F0100087F0100087F01000810
:1000D0007F0100087F0100087F0100087F01000800
:1000E0007F0100087F0100087F0100087F010008F0
:1000F0007F0100087F0100087F0100087F010008E0
:100100007F0100087F0100083FE400087F0100082C
:100110007F0100087F0100088DE40008A5E40008C5
:100120007F0100087F0100087F0100087F010008AF
:10013000DFF80CD001F0C8FE00480047917F0108AD
:10014000F80C012040BA7047C0BA70470138FDD1A1
:100150007047000040BA7047C0BA70470138FDD1FF
:10016000704700000648804706480047FEE7FEE764
:10017000FEE7FEE7FEE7FEE7FEE7FEE7FEE7FEE757
:1001800035E0000831010008EFF3108072B67047C7
:1001900080F3108870471D484FF0FF010170002068
:1001A00080F309881A48012101701A484FF08051E4
:1001B000016062B6FEE717484FF08051016070475A
:1001C00014484FF080510160704772B6EFF3098018
:1001D00028B1203880E8F00F0F490968086000B5A1
:1001E0000E4880475DF804EB0D480E490A7802700E
:1001F00009480D490A680260106890E8F00F203045
:1002000080F309884EF0040E62B6704722ED00E0DC
:100210001702002004ED00E03002002099B700082A
:1002200014020020150200203802002070B5044698
:1002300004981D46042902D311F0010F02D04FF09B
:10024000FF3070BD218008444000811E2846A26016
:1002500001F0D4F80020656070BD00002DE9FF4F6B
:1002600098B06FF001021898189940680B9089684F
:100270001491189909880F9102EB410108440190EB
:100280001B988008139000F04D810F9880081590FE
:1002900019980168019801601999019851F8042F83
:1002A00040F8042F091D001D1991002101900B98A1
:1002B00005910E910C9150F8026B149D50F8027B41
:1002C000DDF854800A460B468C460C4655F804ABC4
:1002D0004FEA264B4FEA2A490BFB09FB1BEB0101B6
:1002E00042EBEB7B36B20FFA8AF206FB02F64FEADC
:1002F000E67A8E194BEB0A0102963E1406FB09F6CC
:100300004FEAE67BDDF814A0F6184BEB0A0A3BB285
:100310005343F618049650F8027B4AEBE3734FEA16
:10032000274B50F8026B0BFB09FACDF824B0DDF82F
:1003300038B04FEAEA7E1AEB0B0A4EEB0C0B3FB2D9
:1003400007FB02FC07974FEAEC771AEB0C0C4BEB20
:10035000070A3714089707FB09F7DDF830900FFA02
:1003600086FE17EB090944EBE7770EFB02F219EB67
:10037000020447EBE27BCDE90C4B55F8042BDDF88A
:1003800024B04FEA2244029E0BFB04F7BE1941EB56
:10039000E77B079F0FFA82F907FB09F14FEAE17249
:1003A0007118089F4BEB02026743049E4FEAE77BFC
:1003B000BF194BEB030B0EFB09F3DE17FB184BEBDE
:1003C0000606059650F8026B4FEA264B0BFB04FB22
:1003D0001BEB0C0C4AEBEB7B0FFA86FA0AFB09FAD3
:1003E0004FEAEA7E1CEB0A0A50F8027BCDF838A0EF
:1003F0004FEA274A4BEB0E0C0AFB04FADDE90C4BE3
:100400001AEB04044BEBEA7A0FFA87FB0BFB09F9B2
:100410004FEAE97B14EB09094AEB0B04CDF8309065
:10042000B8F101087FF452AFDDF83C8018F0030FFB
:1004300048D050F8028B2D68D0F8009028144FEA6D
:10044000264A0AFB00FA4FEAEA7B1AEB010A4BEB59
:10045000020231B22DB26943CE171AEB010172418B
:100460003E144643DDF814A0F3183FB24AEBE6769B
:1004700007FB05F7DB1946EBE77605964FEA2846BA
:1004800006FB00F60E9F4FEAE67AF6194AEB0C07D8
:100490000FFA88FC0CFB05FC16EB0C060E964FEAD7
:1004A000294606FB00F00C9E47EBEC7C861944EBDA
:1004B000E0740FFA89F000FB05F04FEAE0753018A0
:1004C0006C410C9005984FEAD1314FEA404545EA1E
:1004D000D33000F30F0341EA42401A9900F30F00B2
:1004E00063F31F4008600C991A984FEAD13141EA32
:1004F000444101F30F030E994FEAD13141EA4C41D7
:1005000001F30F0163F31F4140F8041F00F10400E1
:100510001A900B9800F108000B901398401E13904E
:100520007FF4B6AE1B9810F003071CBF0F984FEA7C
:1005300050085DD019980199008808801998801C8E
:1005400019900198801C01900B99149801F1040CEA
:100550000A680168031D1414081412B209B260433A
:100560005143C417401844EBE171A8F10102B2F104
:10057000004F16D35CF8044B53F8045B26144FEA83
:10058000254906FB09F64FEAE679361820B249EB11
:1005900001012CB26043C41730186141521EE9D1E9
:1005A00014E0002A12DD00BF5CF8044B53F8045B32
:1005B00026144FEA254906FB09F624B22DB204FBA6
:1005C0000564201841EBE471521EEDD14FEAD030A2
:1005D00040EA414000F30F011A987F1E01801A98EB
:1005E00000F102001A900B9800F102000B90A1D1CB
:1005F00018980F994B1E40689908B1F1004F0DD320
:100600000B9A126840F8042B0B9A52F804CF121D73
:1006100040F804CB0B92491EF2D113E0012201F104
:10062000010CBCF1010F0DDD0B99521C096840F85B
:10063000041B0B9951F8044F091D40F8044B0B9112
:100640009445F1DC03F00301B1F1004F0BD30B9A99
:10065000128820F8022B0B9A921C0B92491EF6D19D
:100660001CB0BDE8F08F0029DCBF1CB0BDE8F08FE6
:100670000B9A921E801E11F0010F03D032F8023F38
:1006800020F8023F490804BF1CB0BDE8F08F538832
:10069000438032F8043F20F8043F491EF7D11CB0D4
:1006A000BDE8F08F10B40180154C446082704FF0AB
:1006B000000CC37010291CD0402915D0B1F5807FE3
:1006C0000DD0B1F5806F18BF4FF0FF3C02D010BCC9
:1006D0006046704701218181C1810A490DE00421F2
:1006E0008181C181084908E010218181C1810749C8
:1006F00003E040218181C18105498160E7E7000075
:1007000088DE060810030708160307082E030708EB
:100710008E0307082DE9F00F01244D084FF0000C5F
:1007200004EB5107012D9CBFBDE8F00F7047014657
:1007300000EB870400264FEA550814E0BCEB460F97
:1007400011D950F82CA0D1F80090C1F800A040F8C1
:100750002C900CEB070AD4F8009050F82AB0C4F89B
:1007600000B040F82A90AC44D1F8049050F82CA086
:10077000C1F804A040F82C90B3F800C00831083448
:10078000761C03EB4203B8F10108D7D1BDE8F00FA6
:1007900070472DE9FF4F8AB00B9900928908002518
:1007A0002E46019150F8262006EB010909EB010ABB
:1007B00013B24FEAA20C50F82A204FEAA30363F3C6
:1007C0000F0C13B24FEAA2044FEAA30363F30F0422
:1007D0000FFA8CF223B202EB030707F30F084FEA7C
:1007E0002C47A2EB0302A7EB244303F30F0302F30E
:1007F0000F024FEA034307EB244C62F30F0350F858
:1008000029200AEB010B14B24FEAA4044FEAA2021A
:1008100064F30F0250F82B400CF30F0C27B24FEA91
:10082000A7074FEAA40467F30F0417B24FEA0C4C72
:1008300068F30F0C4FEA22420FFA84F802EB2442CD
:10084000474402F30F0207F30F074FEA024267F330
:100850000F020FFA8CF70FFA82F84FEA670404EBE5
:10086000680E4FEA6C4404EB62444FEA04446EF3B2
:100870000F044FEA2C4C40F82640ACEB2242A7EB89
:10088000080402F30F02DDF800C004F30F044FEA7E
:10089000024264F30F025CF835C04FEA22474FEA88
:1008A0002C4404FB07F80FFA8CFC12B20CFB0288F4
:1008B00007FB0CFC04FB12CC50F829204FEA284817
:1008C00014B268F30F0C40F829C04FEAA4044FEAB1
:1008D000A20250F82BC064F30F020FFA8CF44FEA17
:1008E000A4044FEAAC0C64F30F0C14B20FFA8CF7AB
:1008F0004FEA2242A2EB2C42A4EB070402F30F02C0
:1009000004F30F044FEA024C64F30F0C1CB2A4EB87
:100910002C480FFA8CF74FEA284907EB2342B9EB32
:10092000E83F1ABF47F6FF7989EAE8780FFA88F8B6
:100930004FEA2249B9EBE23F1ABF47F6FF7989EA4D
:10094000E27212B208EB024204EB2C4C4FEA2C4448
:10095000C7EB2343B4EBEC3F1ABF47F6FF7484EABE
:10096000EC7C0FFA8CFC1C14B4EBE33F1ABF47F687
:10097000FF7484EAE3731BB20CEB0343DDF800C0A1
:100980001F141BB25CF825C0761C4FEA2C4404FBF4
:1009900007F80FFA8CFC0CFB038807FB0CFC04FB2C
:1009A00013C34FEA284868F30F0340F82A30009B2E
:1009B00005EB450C141453F82C3012B24FEA234CBB
:1009C0000CFB04F71BB203FB027763430CFB1232F0
:1009D0003F1467F30F0240F82B200D9A1544019A3B
:1009E000521E01927FF4DEAE0D9A029192000D929A
:1009F000042940F20B810022099189080192039297
:100A0000002940F2FA8000BFDDE90023019C52F882
:100A1000235052F83330019A02EB420C009A52F8FC
:100A20002C20DDF834C0A444CDF804C0DDF82CC07F
:100A3000039C64457DD24FEA224C12B2CDE904C238
:100A40002A1406922AB24FEA23490FFA83FA079230
:100A500004EB010606EB010750F8243050F827504C
:100A60001AB20FFA85FC02EB0C0B0BF30F0E4FEAD8
:100A7000234BA2EB0C02ABEB254C0BEB25430CF309
:100A80000F0C02F30F024FEA0C4C07EB010862F364
:100A90000F0C50F8262050F828500FFA82FB03F371
:100AA0000F034FEA03436EF30F034FEA22420FFA9C
:100AB00085FE02EB2542F34402F30F020BF30F0B0A
:100AC0004FEA02426BF30F020FFA83FB4FEA6343D4
:100AD000089315B24FEA6B0B03EB62430BEB650E09
:100AE0004FEA03436EF30F030FFA83FE4FEA6E0ED5
:100AF0004FEA63036EF30F0340F82430089BABEB1F
:100B00006505A3EB62424FEA024265F30F024FEA2A
:100B1000224309FB03F512B20AFB025503FB0AF359
:100B200009FB12334FEA254550F8262065F30F03E1
:100B300000E05CE040F8263050F8283015B24FEA6B
:100B400022421EB2A2EB2342A5EB060502F30F02DE
:100B500005F30F054FEA02420FFA8CF365F30F021B
:100B60004FEA630615B24FEA6C4CA6EB624B06EBFC
:100B700062460CEB6503ACEB65024FEA024266F39A
:100B80000F02069D4FEA224C05FB0CF6079D12B2A0
:100B900005FB0265079E4FEA25450CFB06F6DDF8CE
:100BA00018C04FEA03430CFB126265F30F0240F8D2
:100BB00027206BF30F03DDF810C04FEA23420CFB34
:100BC00002F6059D0FFA83FC05FB0C6302FB05F59D
:100BD000049A4FEA234302FB1C5263F30F0240F8CE
:100BE0002820099A14440B9A9442FFF431AF039AD7
:100BF000521C03928A42FFF407AF0D9A92000D92A5
:100C0000029A92080292042A3FF6F5AE0B9A8E08D9
:100C1000521A0024531C002B87BF521C00920EB0A6
:100C2000BDE8F08F04EB060505EB060750F824C07D
:100C300050F827900FFA8CF20FFA89F302EB030AAF
:100C40000AF30F0B4FEA2C4AA2EB03020AEB294CE2
:100C5000AAEB294303F30F030CF30F0C02F30F026B
:100C60004FEA034307EB06084FEA0C4C62F30F030D
:100C70006BF30F0C50F8252050F828900FFA82FBE8
:100C80004FEA22420FFA89FA02EB2942DA4402F3D0
:100C90000F020AF30F0A4FEA02426AF30F020FFA39
:100CA0008CFA4FEA6C4E0FFA82F90EEB624C4FEA67
:100CB0006A0A0AEB690B4FEA0C4C6BF30F0C40F815
:100CC00024C0AEEB6242AAEB690C4FEA02426CF31D
:100CD0000F0250F825C040F8252050F828200FFAC0
:100CE0008CF50FFA82F94FEA2C4CACEB2242A5EBC3
:100CF000090502F30F0205F30F054FEA024265F3FF
:100D00000F021DB20FFA82FC4FEA65054FEA6343FA
:100D100005EB6249A3EB6C0AA5EB62454FEA0A4A70
:100D200003EB6C0269F30F0A4FEA024240F827A076
:100D300065F30F0240F82820009A0C44A2423FF6C7
:100D400071AF0EB0BDE8F08F2DE9FF4F98B0199943
:100D50001092890800252E46CDF8481050F826201C
:100D600006EB010909EB010A13B24FEAA20C50F895
:100D70002A204FEAA30363F30F0C13B24FEAA20435
:100D80004FEAA30363F30F040FFA8CF223B202EBD2
:100D9000030707F30F084FEA2C47A2EB0302A7EB68
:100DA000244303F30F0302F30F024FEA034307EB5D
:100DB000244C62F30F0350F829200AEB010B14B204
:100DC0004FEAA4044FEAA20264F30F0250F82B404A
:100DD0000CF30F0C27B24FEAA7074FEAA40467F3FE
:100DE0000F0417B24FEA0C4C68F30F0C4FEA224283
:100DF0000FFA84F802EB2442474402F30F0207F390
:100E00000F074FEA024267F30F020FFA8CF70FFA4F
:100E100082F84FEA670404EB680E4FEA6C4404EB77
:100E200062444FEA04446EF30F044FEA2C4C40F83E
:100E30002640ACEB2242A7EB080402F30F02DDF8D8
:100E400040C004F30F044FEA024264F30F025CF85F
:100E500035C017B20FFA8CF404FB07F84FEA2C4C9C
:100E60004FEA22420CFB128802FB04F20CFB072C17
:100E700050F829204FEA284814B268F30F0C40F8C4
:100E800029C04FEAA4044FEAA20250F82BC064F331
:100E90000F020FFA8CF44FEAA4044FEAAC0C64F38F
:100EA0000F0C14B20FFA8CF74FEA2242A4EB07049E
:100EB000A2EB2C4202F30F0204F30F044FEA024CA0
:100EC00064F30F0C1FB207EB2C480FFA8CF44FEAB7
:100ED0002849C4EB2342B9EBE83F1ABF47F6FF7934
:100EE00089EAE8780FFA88F84FEA2249B9EBE23F3D
:100EF0001ABF47F6FF7989EAE27212B208EB0242A2
:100F000004EB2344A7EB2C434FEA234CBCEBE33F19
:100F10001ABF47F6FF7C8CEAE3731BB24FEA244CFE
:100F2000BCEBE43F1ABF47F6FF7C8CEAE47C0FFA87
:100F300084FC03EB0C43DDF840C01FB21B145CF8CB
:100F400025C0761C0FFA8CF404FB07F84FEA2C4CF2
:100F50000CFB138863430CFB07334FEA284868F304
:100F60000F0340F82A30109B05EB450C17B253F8DD
:100F70002C3012141CB204FB07F84FEA234C0CFB74
:100F8000128362430CFB07221B1463F30F0240F829
:100F90002B201B9A1544129A521E12927FF4DEAE39
:100FA0001B9A179192001B92042940F20E81002295
:100FB0001391890811921292002940F2FD8000BF1E
:100FC000DDE91023DDF844C052F82330109C52F8BC
:100FD0003C200CEB4C0C1B9D54F82CC0119C2C4459
:100FE0001194199D129CAC427DD24FEA2C450FFA08
:100FF0008CFCCDF850C04FEA234C1BB2CDF828C072
:10100000CDE90B354FEA22490FFA82FA04EB0106CB
:1010100006EB010750F8243050F827501AB20FFAA7
:1010200085FC02EB0C0B0BF30F0E4FEA234BA2EBEC
:101030000C02ABEB254C0BEB25430CF30F0C02F32E
:101040000F024FEA0C4C07EB010862F30F0C50F84B
:10105000262050F828500FFA82FB03F30F034FEAC3
:1010600003436EF30F034FEA22420FFA85FE02EBB1
:101070002542F34402F30F020BF30F0B4FEA024237
:101080006BF30F020FFA83FB4FEA6343049315B22D
:101090004FEA6B0B03EB62430BEB650E4FEA034326
:1010A0006EF30F030FFA83FE4FEA6E0E4FEA6303EF
:1010B0006EF30F0340F82430049BABEB6505A3EB04
:1010C00062424FEA024265F30F0213B20AFB03F5D4
:1010D0004FEA224209FB125502FB0AF209FB0322E6
:1010E0004FEA254500E061E050F8263065F30F0235
:1010F00040F8262050F828201DB216B24FEA2343AC
:10110000A3EB2242A5EB060502F30F0205F30F0540
:101110004FEA02420FFA8CF365F30F024FEA6306BF
:1011200015B24FEA6C4C06EB624BA6EB6246ACEB99
:1011300065030CEB65024FEA024266F30F020B9D5A
:101140000FFA82FC05FB0CF60A9D4FEA224205FBD2
:1011500012650B9E4FEA254502FB06F60A9A4FEAF6
:10116000034302FB0C6265F30F0240F827206BF388
:101170000F03DDF850C01AB20CFB02F5DDF830C0E9
:101180004FEA23430CFB135C149D4FEA2C4C03FBEA
:1011900005F50C9B03FB02526CF30F0240F828206C
:1011A000139A1444199A9442FFF430AF129A521CC5
:1011B00012928A42FFF404AF1B9A92001B92179A74
:1011C00092081792042A3FF6F2AE199A8E08521A24
:1011D0000024531C002B87BF521C06921CB0BDE894
:1011E000F08F00BF04EB060505EB060750F824C09E
:1011F00050F827900FFA8CF20FFA89F302EB030AEA
:101200000AF30F0B4FEA2C4AA2EB03020AEB294C1C
:10121000AAEB294303F30F030CF30F0C02F30F02A5
:101220004FEA034307EB06084FEA0C4C62F30F0347
:101230006BF30F0C50F8252050F828900FFA82FB22
:101240004FEA22420FFA89FA02EB2942DA4402F30A
:101250000F020AF30F0A4FEA02426AF30F020FFA73
:101260008CFA4FEA6C4E0FFA82F90EEB624C4FEAA1
:101270006A0A0AEB690B4FEA0C4C6BF30F0C40F84F
:1012800024C0AEEB6242AAEB690C4FEA02426CF357
:101290000F0250F825C040F8252050F828200FFAFA
:1012A0008CF50FFA82F94FEA2C4CACEB2242A5EBFD
:1012B000090502F30F0205F30F054FEA024265F339
:1012C0000F021DB20FFA82FC4FEA65054FEA634335
:1012D000A5EB624903EB6C0A05EB62454FEA0A4A4B
:1012E000A3EB6C0269F30F0A4FEA024240F827A011
:1012F00065F30F0240F82820069A0C44A2423FF6FC
:1013000071AF1CB0BDE8F08F2DE9F04F0546807835
:101310000C462988AB896A68012820461AD0FFF755
:1013200038FAE878012818BFBDE8F08F2888B5F8AA
:101330000E80AA6801230021450803EB5007012D08
:1013400098BFBDE8F08F204604EB87034FF0000CF8
:101350006E0818E0FFF7F8FCE3E700BFB1EB4C0FB5
:1013600011D954F821A0D0F80090C0F800A044F89A
:10137000219001EB070AD3F8009054F82AB0C3F883
:1013800000B044F82A902944D0F8049054F821A0E1
:10139000C0F804A044F8219011880830083302EB0B
:1013A00048020CF1010C761ED8D1BDE8F08F10B5C3
:1013B000431A934209D28318881803E010F8011DDC
:1013C00003F8011D521EF9D210BD40EA01039B072C
:1013D00003D009E008C9121F08C0042AFAD203E0AA
:1013E00011F8013B00F8013B521EF9D210BDD2B2F8
:1013F00001E000F8012B491EFBD270470022F6E7FE
:1014000010B504460846114602462046FFF7EFFF96
:10141000204610BD10B5044604E00B7800F8013BEF
:1014200003B1491C521EF8D2204610BD01460020CF
:1014300000E0401C0A5C002AFBD1704730B504462E
:101440000020034600E05B1C934203D2E05CCD5CCD
:10145000401BF8D030BD034611F8012B00F8012BDA
:10146000002AF9D11846704770B5064612F020FEE2
:10147000046805460A220021304600F027FC2C6053
:1014800070BDF0B480EA0102D20F4300B3EB410F0C
:1014900002D20346084619464B0042D0C30DDDB2C6
:1014A000C1F3C7542C1B202C35DAC1F3160141F4CB
:1014B000000502B16D42C4F1200605FA06F125418E
:1014C0002844B3EBD05F23D0C2B1012CA0EBC350B2
:1014D00009DCF0BC4FF0004202EAC35200F5000004
:1014E000DBB200F034BC400000F1807000EBC35070
:1014F000A0F1807040EAD170490009E0490841EA52
:10150000C071A0EBC35000F50000400800EBC350D1
:10151000F0BC00F013BC5142012303EB4101801ADF
:10152000F6E7F0BC704781F00041AAE780F0004088
:10153000A7E780EA010210B502F00042400026D081
:101540004B0023D04FEA106101EB1361C0F356004A
:10155000C3F3560340F4000043F40003A0FB033040
:10156000A1F17F014FEA00401C0401D000F101000D
:1015700050EA134001D44000491EC3B20C0604EBEC
:10158000D010401C4008802B02D003E0002010BD8A
:1015900020F00100002900DA0020104310BD80EA8D
:1015A000010202F0004330B430F0004221F000406C
:1015B00015D0A0B1C0F3C755C2F3C754C2F316018A
:1015C000C0F31600651B41F4000140F400007D35B6
:1015D000814201D36D1C00E04900002D02DA30BCCD
:1015E000002070474FF400020024814201D3091A01
:1015F000144352084FEA4101F7D151B1814202D15F
:101600004FF0004105E002D24FF0010101E06FF020
:10161000010104EBC55030BC184400F08FBB420000
:1016200005D0C0F3C7525242914201DC00207047FE
:1016300000EBC15070472DE9FE4F074681EA0300D9
:10164000C00F0E46019021F0004123F00044B81A6B
:10165000A14105D23846314617461E460B46024682
:1016600023F00040104304D13846314603B0BDE8B2
:10167000F08F350DC5F30A00C3F30A510290401AEA
:101680000090402867DAC3F3130040F4801B0198F0
:10169000924620B10023D2EB030A63EB0B0B0098B8
:1016A0005946C0F14002504600F093FA80460C467D
:1016B00050465946009A00F0ABFAC0197141EF1735
:1016C00085EA11533B433FD0019A4AB3009A012A5D
:1016D00011DC0022801A61EB05514FF0004303EA50
:1016E0000555CDE90025801841F580114246234675
:1016F00000F069FBBAE72E050025401B61EB0601EF
:10170000401941F58012001852412818A6F500131F
:1017100043EB020140EAD47018EB0808644113E07F
:1017200064084FEA38084FF0000244EAC0744FEAF8
:101730000553801A61EB0301801841F580114908B7
:101740004FEA3000801859414246234603B0BDE8B5
:10175000F04F00F02BBB0198012240000023D0EB9A
:10176000020263EBE07301984FEAE074381A66EB0B
:101770000401EBE783F000435DE781F000415AE7A5
:101780002DE9FE4F81EA030421F0004504F00044F6
:1017900023F000414FF0000A009450EA050302D004
:1017A00052EA010304D10020014603B0BDE8F08FE6
:1017B000C1F30A53C5F30A542344A3F2F33301934C
:1017C000A0FB02B3C5F3130545F4801CC1F313015C
:1017D00041F480180CFB023300FB083E810A930A97
:1017E00041EA8C5143EA8853A1FB03474FEA9C2509
:1017F00005FB03734FEA982601FB06373D052605D6
:1018000045EA1435BBEB06016EEB0503850E920E1F
:1018100045EA8C1542EA8812A5FB0206261E67EBF4
:1018200000070C0D44EA0334A61947EB1350C1F32B
:1018300013044FF000031946E5FB02014FEA03359C
:1018400045EA1455019B4FEA0432009CA3F10C03B6
:10185000CDE900A445EA060502932B4600F0B3FA51
:10186000A3E72DE9F04D81EA030404F0004B21F0D9
:10187000004714464FF0000A23F0004150EA0702E7
:1018800020D054EA01021DD0C1F30A550246C1F32B
:101890001300C7F30A56C7F3130340F4801143F44F
:1018A0008013A6EB0508101BD64608F2FD3873EB33
:1018B000010002D308F1010801E092185B41B8F180
:1018C000000F03DA00200146BDE8F08D00204FF440
:1018D0008015064607460EE0B2EB040C73EB010CD4
:1018E00004D3121B064363EB01032F436D084FEA39
:1018F000300092185B4150EA050CEDD152EA03002A
:1019000012D082EA040083EA0105284303D10022B1
:101910004FF0004308E0101B8B4102D2012200234C
:1019200002E06FF0010253101AEB060047EB08517A
:1019300010EB0A0041EB0B01BDE8F04D00F036BAA8
:1019400070B521F0004303430CD0C1F30A540026C4
:10195000D4EB060566EB0603D417AD1AA34102DBF0
:101960000020014670BD001C41EB025170BDC10F4B
:1019700080EAE0700844CA079623002100F0E7B926
:1019800096230022114600F0E2B90EB5C10F80EA9D
:10199000E0700844CA07002140F233438DE80E008E
:1019A0000A460B4600F00FFA03B000BD0EB5002248
:1019B00040F23343CDE9002202931346002100F0A8
:1019C00002FA03B000BD00F0004220F00040C10D5B
:1019D000C0F3160040F400007F2901DA00207047B0
:1019E000962903DCC1F19601C84001E09639884090
:1019F000002AF4D04042704720F00040C10DC0F3EF
:101A0000160040F400007F2901DA00207047962973
:101A100003DCC1F19601C840704796398840704791
:101A200070B5C1F30A5201F000450024C1F313015F
:101A300040F2FF3341F480119A4201DA002070BD78
:101A400040F233439A42A2F2334203DC524200F0A6
:101A5000CFF800E090402C43F1D0404270BDC1F37C
:101A60000A52C1F3130140F2FF3341F480119A424C
:101A700001DA0020704740F233439A42A2F2334227
:101A800002DC524200F0B4B89040704700F00042CF
:101A900030F000400DD0C10D01F5607142EA0151F6
:101AA0000022C0F31600520742EAD0024007114359
:101AB000704700200146704730B5002904DB4FF025
:101AC0000044404264EB0101002B04DB4FF0004472
:101AD000524264EB03038B4208BF824230BD0000D8
:101AE00001F0004230B421F0004150EA010306D079
:101AF0000B0DA3F56073C1F31301002B02DC30BCA6
:101B000000207047440F44EAC104C100A01830BC53
:101B100000EBC35000F012B9002801DBC0F1004017
:101B2000002901DBC1F1004181427047002801DB3F
:101B3000C0F10040002901DBC1F10041884270473B
:101B400030B50B46014600202022012409E021FA8D
:101B500002F59D4205D303FA02F5491B04FA02F58A
:101B60002844151EA2F10102F1DC30BD2DE9F05F21
:101B70000546002092469B468846064681464024FC
:101B80001DE0284641464746224600F031F8B0EBBA
:101B90000A0052465B4671EB0B0110D31046194602
:101BA000224600F016F82D1A67EB01084F46224630
:101BB0000120002100F00DF817EB00094E41201E16
:101BC000A4F10104DDDC484631462A464346BDE81F
:101BD000F09F202A04DB203A00FA02F1002070472F
:101BE0009140C2F1200320FA03F31943904070475B
:101BF000202A04DB203A21FA02F00021704721FA62
:101C000002F3D040C2F120029140084319467047C8
:101C1000202A06DBCB17203A41FA02F043EAE073B0
:101C200006E041FA02F3D040C2F12002914008439D
:101C3000194670470FB4002300B589B00CA9009174
:101C40000B99204ACB601E4BCDE90632042201924B
:101C50006FF0004202921C4A089202466B46002036
:101C600000F0DAF909B05DF814FB70B586B00646ED
:101C70004FF0FF300091CDE9010100200C461546E0
:101C800004903246694604A8FFF7D4FF034604983F
:101C900021181DB10A4600B922462A6000280DD03D
:101CA000002B02DD0098884208D0081B0094CDE983
:101CB00001043246694604A8FFF7BCFF06B070BDB8
:101CC0005D2200087B220008F51E00082DE9F04780
:101CD0000F46914680460446002614F8015B2DB15C
:101CE00000F004F90068405DC007F6D12B2D02D04A
:101CF0002D2D18D0641E4A463946204600F0CEFAF3
:101D000027B13968A14201D1C7F8008071054FF0B1
:101D100002040BD54042002803DD12F0C9F904602B
:101D2000A007BDE8F08746F48066E4E70028F8DA0B
:101D300012F0BEF904606FF00040F2E70029A8BF7E
:101D40007047401C490008BF20F00100704710B4E4
:101D5000B0FA80FC00FA0CF050EA010404BF10BC99
:101D6000704749B1CCF1200421FA04F411FA0CF1C6
:101D700018BF012121430843A3EB0C01CB1D4FEAFF
:101D800000614FEA102048BF0020BCBF10BC704764
:101D900000EBC35010440029A4BF10BC7047401C86
:101DA000490008BF20F0010010BC704710B5002B9F
:101DB00008DA401C41F1000192185B411A4301D13D
:101DC00020F0010010BD2DE9FF4D934611B1B1FA8D
:101DD00081F202E0B0FA80F220329246FFF7F9FE7B
:101DE000039A0746884640EA0B0011435B460843C6
:101DF00004D13846414604B0BDE8F08D114653EA9F
:101E0000020016D0CAF140025846FFF7F1FE044620
:101E10000D464FF00106584652460399FFF7D9FE8A
:101E2000084300D10026344345EAE675274345EAD6
:101E300008080E984FF00005A0EB0A014FEAD720E2
:101E40000A314FEA47532A4640EA48504FEAD8241D
:101E500002D500200146CEE7281844EB0151DDE908
:101E60000C45001904B06941BDE8F04D9EE7C1F38F
:101E70000A52C1F3130140F2FF3341F480119A4238
:101E800002DA00200146704740F233439A42A2F240
:101E9000334202DC5242FFF7ABBEFFF79ABE0000AE
:101EA00030B5002904DB4FF00044404264EB0101EF
:101EB000002B04DB4FF00044524264EB03039942D1
:101EC00008BF904230BD0000064C074D06E0E068B8
:101ED00040F0010394E8070098471034AC42F6D371
:101EE000FEF72AF95C2C07087C2C0708004870478D
:101EF000D427070810B50446FFF7F8FF0068005D17
:101F000000F0010010BD00002DE9FF4F087881B0FE
:101F100091469846FF2806D0491C2D2806D000225D
:101F20004FF0000C09E04FF0000C0CE00122F7E745
:101F30000CEB8C0300EB430C491C0878FF28F7D10D
:101F40000AB1CCF1000C0020009099F80020014665
:101F50002D2A01D02B2A15D109F101092D2A02D0F1
:101F6000002200920EE00122FBE70A22A0FB0257AA
:101F700001FB0271002300FB0312601909F1010942
:101F800043EB020199F80040FF2CEED10CEB08095D
:101F900050EA010207D1019800210A46C0E9001168
:101FA00005B0BDE8F08F0024A94D2646DFF8A482D5
:101FB00000F0D2F983468A46B9F10000C9F1000762
:101FC00014DB074612E0F80707D022462B463046BE
:101FD0004146FFF7D5FB0646884622462B4620465B
:101FE0002946FFF7CDFB04460D467F10002FEAD1AE
:101FF000B9F1000F324643465846514602DAFFF720
:1020000030FC01E0FFF7BCFB009A0AB181F000410F
:10201000019AC2E90001C3E72DE9FF4FD3E9014668
:102020008DB04FF0FF382E201F4645464FF0000977
:102030000B90B9696D1C0E988847396A82468847AB
:102040000028F6D11AF101000AD024F4D064002E41
:1020500012DDBAF12B0F08D0BAF12D0F0CD102E02E
:10206000404611B09DE744F48064B9696D1C0E9838
:1020700088478246A6F101062D206946620500D4F4
:102080002B208DF8000001F1010B0DF1200809E073
:10209000B9696D1C0E98884782460F98761E44F4E5
:1020A00000740560002E02DDBAF1300FF0D00B99FC
:1020B0008A4541D144F0800406E00F99681CA9F1DB
:1020C000010944F400740860761EB9696D1C0E980D
:1020D000884782463028F0D02EE00B998A4505D1FA
:1020E000200603D444F08004761E1BE00121AAF1EF
:1020F00030000A2823D211B3761E0DF1130244F4E6
:1021000000745946934508D28BF8000001F1010B89
:10211000200607D5A9F1010003E0200602D409F149
:1021200001008146A00502D50F99681C0860B969B5
:102130006D1C0E9888478246002ECEDC55E0002E9E
:1021400053DDBAF1650F02D0BAF1450F4DD1A005AC
:102150004BD5761EB96924F440746D1C0E988847DF
:102160002021002E00DD01462B2903D02D2907D187
:1021700044F48074B9696D1C0E988847A6F1010675
:10218000E10505D52D2188F8001008F1010104E0D2
:102190002B2288F8002008F1010188468A461CE0BD
:1021A000761E0DF1290244F400744146904509D28F
:1021B00010F0FF0088F8000001D1514507D908F15F
:1021C000010804E02448E10500D440428146B96991
:1021D0006D1C0E9888470F990D60002E05DD0121BA
:1021E00030380A2801D20029DAD1F9690E988847D7
:1021F000FF208BF8000088F8000000200690079070
:102200004B466A4608A906A8FFF77EFEA00502D441
:102210006FF0010025E714F0240F0AD0E00714D175
:10222000DDE906123868031D3B600068C0E9001252
:102230000BE0DDE90601FFF753FC0146E00704D19E
:102240003868021D3A6000680160284609E700000E
:10225000000024400000F03FF1D8FFFF426842B187
:10226000016811F8013B23B1521EC0E90012184663
:1022700070470121C160881E7047416859B1C36829
:10228000026843B98368934205D0521E491CC0E9D5
:102290000021002070474FF0FF3070472DE9F05FBC
:1022A0008246044600780027641C8B461546B946D2
:1022B000302801D09DB113E014F8010B01277828D4
:1022C00003D0582801D045B10AE00DB1102D07D137
:1022D0000027102514F8010B02E0082500E00A256C
:1022E0000026B0460EE005FB080005FB06F10127BD
:1022F00001EB10461FFA80F8B6F5803F00D3B946CF
:1023000014F8010B294600F017F80028EBDABBF1AE
:10231000000F04D0641E07B95446CBF80040B9F151
:10232000000F06D011F0C4FE02210160C81EBDE8F6
:10233000F09F48EA0640FAE73A2800D2303820F009
:102340002002412A01D3A2F137004FF0FF32884228
:1023500000D20246104670470EB5002240F23343C9
:10236000CDE9002202930023FFF72DFD03B000BD4D
:1023700070B501EB020410F8015B15F0070301D101
:1023800010F8013B2A1106D110F8012B03E010F8D8
:10239000016B01F8016B5B1EF9D12B0705D40023FB
:1023A000521E0FD401F8013BFAE710F8013B02F18D
:1023B0000202A1EB030303E013F8015B01F8015BE8
:1023C000521EF9D5A142D6D3002070BD002800DCF2
:1023D0004042704700B585B0032319480DF1040C45
:1023E00000225902ACE80F000523164A00211648C6
:1023F000009309F0ABF813480DF1040C03230022FD
:102400004FF40071001DACE80F00042300F2FC72D1
:1024100000210E48009309F099F80D480DF1040CC5
:10242000032300224FF48071ACE80F00072300F56E
:102430007F7200210748009309F088F805B000BDBD
:10244000800600207C1E0020D724000859240008A4
:1024500080260020B5240008154E012586B00024F2
:10246000002205231146104609F0CEF9102130460E
:1024700002F02EFD38B18DF80840009468460194B2
:1024800004F006FDECE704A903A801F043FF03985C
:102490000090049801908DF80850684604F0F8FC0C
:1024A000002214231146104609F0AEF9D8E70000C7
:1024B0000010014000220A231146104609F0A4F939
:1024C000F8E700F021F809F025F8FFF783FFFF2077
:1024D00009F00CF9FBE708F0C5FCFCE710B501209A
:1024E0000AF0F6FEBDE8104000200AF0F1BE000040
:1024F0000149085A70470000006C0040014A115021
:1025000070470000006C004008B50AF0E7FE02F0DA
:1025100027FB0BF01DFC0CF021FA01F062FE08F025
:10252000CBFA08F0E6FB08F0ABFB002014F017F93B
:102530000AF07AFF08F028FE0BF04AFC17F0A4F826
:1025400003F090FF002004F00EFD0021F0234FF473
:10255000A072084603F024FE002007F089F900234A
:102560000093642350222D21012003F0EFFF05A0EA
:1025700003F032FB4FF6FF7007F07AF9BDE8084030
:1025800009F0D9B948656C6C6F20776F726C642163
:102590000000000070B5B0F904600546304602F056
:1025A00013FF0446294630460CF038FB00284ED075
:1025B00028680B2822D00C2804D00E2828D00F28F9
:1025C00040D115E0A868214680B1007A0028C88C67
:1025D0004FEAC05006D0002839DB3046BDE87040D5
:1025E00010F0F4B9002832DA022226E0032224E0B7
:1025F00031462046BDE8704010F086BB04F14C0027
:1026000002F039FE032104F14E0002F043FE19E00E
:10261000A968486809680D2902D0202912D106E06E
:1026200000280FDD2146304610F0D0F903E00028E5
:1026300001DD2146D1E7022221463046BDE8704047
:1026400010F0D5B92846BDE870400CF0F5BD70BD5E
:102650002DE9FF410AAF70CF002703958DE8D00028
:1026600000F004F804B0BDE8F08100002DE9FF4758
:102670000446DDE90C780D4616469946DDF83CA087
:1026800004F08AF83421114A03911FFA88F0009768
:10269000CDE901024B463246294620460CF028FD82
:1026A00004000CD002F090FE0546102251460CF0BA
:1026B00061FC2422064905F12800FEF778FE04F0AB
:1026C00079FE04B02046BDE8F0870000952500089B
:1026D000B80200207FB5044610461D46B4F9082014
:1026E000638A0026CDE90232CDE90016B4F90C1058
:1026F000B4F910302944B4F90A50B4F90E20284432
:10270000FFF7B4FF0546616800F04AF804B02846B8
:1027100070BD70B504460D4610461946049A03F084
:10272000A3F9024629462046BDE8704000F061B892
:1027300000294FF0100101D00CF0DCBA0CF048BABF
:1027400070B504000D460CD004F026F8204602F0C7
:102750003BFE456420460DF044F9BDE8704004F0AE
:1027600029BE70BD4FF480720029114601D00CF0D3
:10277000C1BA0CF02DBA08B50023009300F001F89F
:1027800008BD70B504460D4610461946049A03F07C
:1027900089F9024629462046BDE8704000F029B874
:1027A00070B504000D4610D003F0F6FF204602F08D
:1027B0000BFE29464C3005F081F810B120460DF093
:1027C00010F9BDE8704004F0F5BD70BD70B50500AE
:1027D0000C460DD003F0E0FF284602F0F5FDA0F80E
:1027E000484028460DF0FDF8BDE8704004F0E2BD19
:1027F00070BD70B505000C46164615D003F0CCFF31
:10280000284602F0E1FD032C0AD800EB440404F151
:102810004E0002F030FDA4F84E6028460DF0E1F8BD
:10282000BDE8704004F0C6BD70BDFEE72DE9F04183
:10283000B0F904500646284602F0C6FD044631466B
:1028400028460CF0EBF900285FD030680B2853D0F5
:102850000C2823D00E2802D00F2851D118E028468A
:102860000DF07AFEE0B3B0684168002948DD0068E9
:10287000202845D104F15C046078217800F1010042
:10288000B0FBF1F201FB1201284600F0CFF837E06F
:1028900029462046BDE8F04110F0D8BC2F46B56867
:1028A0004FF0000835B338460DF002F808B1414644
:1028B00013E0287AA8B1012138460DF053FA04F14B
:1028C0005C046078217800F10100B0FBF1F201FBBB
:1028D0001201384600F0AAF8012138460DF01EF921
:1028E0000EE0022138460DF019F9B4F9240004F085
:1028F000DFFB05E00321F0E704F15E0002F0BBFC22
:102900003046BDE8F0410CF097BCBDE8F081000016
:102910002DE9FF5F8146DDE90E858A4617461C4694
:10292000DDF844B003F038FF1F4E27B17CB90CF03E
:102930006FF9406907E00CF06BF9B16A40690988EA
:1029400001EB40071CB9B16A498801EB4004F0680B
:102950006FF07041884201D145F001054022134BD0
:102960000392A8B2CDF80080CDE9010323463A4690
:10297000514648460CF0BCFB05000FD002F024FD88
:102980000446102259460CF0F5FA3422064904F1A7
:102990002800FEF70CFD022084F85C0004F00AFD1C
:1029A00004B02846BDE8F09F940300202D280008BD
:1029B0007FB514461D46B0F90820438A0026CDE9AC
:1029C0000232CDE90016B0F90C10B0F91030B0F9B0
:1029D0000E20B0F90A0029442044FFF799FF04B003
:1029E00070BD70B505004FF0000408D003F0D4FEB0
:1029F000284602F0E9FC90F85D4004F0DBFC20463C
:102A000070BD70B505000C460FD003F0C5FE28461A
:102A100002F0DAFC816AA14203D0846228460CF0FD
:102A2000E0FFBDE8704004F0C5BC70BD70B50500A6
:102A30000C4615D003F0B0FE284602F0C5FC90F815
:102A40005C10A14208D380F85D4028460CF0C9FF15
:102A5000052128460DF062F8BDE8704004F0AABCDC
:102A600070BD70B504000D4612D0002D10D003F0DB
:102A700093FE204602F0A8FC29465E3004F01EFFBB
:102A800010B120460CF0ADFFBDE8704004F092BCE0
:102A900070BD00000148006870470000DC020020A3
:102AA000704700002DE9F0410446104815461E46C7
:102AB000007C8FB2800708D514E02A883946A0B27E
:102AC00007F054FA761E641CAD1C002EF5DCBDE840
:102AD000F0812A881AB13946A0B207F047FA761E6B
:102AE000641CAD1C002EF4DCF1E70000E082002045
:102AF0002DE9F05F0546DDE90A408B46B0F800900D
:102B0000B0F802808F4816789246007C1FFA8BF747
:102B100010F0030103F0070004D0012912D00229AC
:102B200018D107E0082815D2DFE800F068727D8828
:102B300093A0ABB608280DD2DFE800F00C151F29D2
:102B4000333D4751082805D2DFE800F0B6BEC6CEB7
:102B5000D6DEE6EE300604D542463946A8B207F086
:102B600005FA641E7DD0700605D5681C42463946BC
:102B700080B207F0FBF9641E73D0B00605D5A81C1F
:102B80004246394680B207F0F1F9641E69D0F0067A
:102B900005D5E81C4246394680B207F0E7F9641EC5
:102BA0005FD0300705D5281D4246394680B207F070
:102BB000DDF9641E55D0700705D5681D42463946BB
:102BC00080B207F0D3F9641E4BD0B00705D5A81D1D
:102BD0004246394680B207F0C9F9641E41D0F00779
:102BE00005D0E81D4246394680B207F0BFF9641EA1
:102BF00037D005F108051AF8016FABE742463006F9
:102C000000D44A463946A8B207F0B0F9641E28D06D
:102C10004246700600D44A46681C394680B207F026
:102C2000A5F9641E1DD04246B00600D44A46A81C31
:102C3000394680B207F09AF9641E12D04246F00677
:102C400000D44A46E81C394680B207F08FF9641E6A
:102C500076D04246300700D44A46281D394680B215
:102C600000E06DE007F082F9641E69D0424670070B
:102C700000D44A46681D394680B207F077F9641ED1
:102C80005ED04246B00700D44A46A81D394680B2FD
:102C900007F06CF9641E53D04246F00700D14A4653
:102CA000E81D394680B207F061F9641E48D005F18D
:102CB00008051AF8016FA1E7300603D559462846E2
:102CC00007F0CBF8641E3BD0700603D55946681C4C
:102CD00007F0C3F8641E33D0B00603D55946A81CCC
:102CE00007F0BBF8641E2BD0F00603D55946E81C4C
:102CF00007F0B3F8641E23D0300703D55946281DCA
:102D000007F0ABF8641E1BD0700703D55946681D49
:102D100007F0A3F8641E13D0B00703D55946A81DC9
:102D200007F09BF8641E0BD0F00703D05946E81D4E
:102D300007F093F8641E03D008351AF8016FBBE75B
:102D4000BDE8F09FE08200202DE9F0470646784874
:102D5000DDE90849007C157890468FB2B9F1000F83
:102D60004FEA807078D0002803F0030005DAC0B382
:102D7000012843D002285DD14EE020B101280BD0BC
:102D800002281FD113E0A909B0B239F81120394641
:102D900007F0ECF8641E6FD0C5F30111701C39F810
:102DA0001120394680B207F0E1F8641E64D0C5F303
:102DB0008101B01C39F81120394680B207F0D6F8ED
:102DC000641E59D005F00301F01C39F81120394672
:102DD00080B207F0CBF8641E4ED018F8015F361DA4
:102DE000D1E7FFE715F0C00F06D0A909B0B239F856
:102DF0001120394607F0BAF8641E3DD015F0300FA7
:102E000008D0C5F30111701C39F81120394680B281
:102E100007F0ACF8641E2FD015F00C0F08D0C5F3E6
:102E20008101B01C39F81120394680B207F09EF8B4
:102E3000641E7AD0A80708D005F00301F01C39F809
:102E40001120394680B207F091F8641E6DD018F851
:102E5000015F361DC6E7FFE7002803F0030005DA2F
:102E600088B301283AD0022850D143E028B1012884
:102E70000AD002281AD110E057E0AA093946B0B2A8
:102E800007F074F8641E50D0701CC5F30112394667
:102E900080B207F06BF8641E47D0B01CC5F3810206
:102EA000394680B207F062F8641E3ED0F01C05F08F
:102EB0000302394680B207F059F8641E35D018F87D
:102EC000015F361DD9E7FFE715F0C00F04D0AA094E
:102ED0003946B0B207F04AF8641E26D015F0300F1C
:102EE00006D0701CC5F30112394680B207F03EF8D7
:102EF000641E1AD015F00C0F06D0B01CC5F3810269
:102F0000394680B207F032F8641E0ED0A80706D00A
:102F1000F01C05F00302394680B207F027F8641E62
:102F200003D018F8015F361DCEE7BDE8F08700003A
:102F3000E08200202DE9F04705463E48DDE90869BA
:102F4000007C147817461FFA81F8B9F1000F4FEA98
:102F500080703AD000284FEAC37001DAC8B123E08C
:102F600040B92109A8B239F81120414606F0FEFF08
:102F7000761E5DD004F00F01681C39F8112041461F
:102F800080B206F0F3FF761E52D0AD1C17F8014F49
:102F9000E7E7200906D02109A8B239F811204146F7
:102FA00006F0E4FF761E43D0200708D004F00F019E
:102FB000681C39F81120414680B206F0D7FF761E12
:102FC00036D0AD1C17F8014FE3E700284FEAC37075
:102FD00001DAA8B11DE030B922094146A8B206F0D5
:102FE000C5FF761E24D0681C04F00F02414680B253
:102FF00006F0BCFF761E1BD0AD1C17F8014FEBE7A7
:10300000200904D022094146A8B206F0AFFF761E7F
:103010000ED0200706D0681C04F00F02414680B293
:1030200006F0A4FF761E03D0AD1C17F8014FE7E7AA
:10303000BDE8F087E08200202DE9F04104462248F7
:10304000DDF818801546007C1E4680078FB21CD420
:10305000B8F1000F0AD115E02878394638F8102069
:10306000A0B206F083FF761E641C6D1C002EF3DCFC
:10307000BDE8F0812A783946A0B206F077FF761EC7
:10308000641C6D1C002EF5DCF2E7B8F1000F0BD1CB
:1030900016E0287828B138F810203946A0B206F09A
:1030A00065FF761E641C6D1C002EF2DCE0E72A78BA
:1030B0001AB13946A0B206F059FF761E641C6D1C89
:1030C000002EF4DCD4E70000E082002070B505009B
:1030D0000E467ED003F060FB284602F075F904002E
:1030E00073D0E26C1AB13146284690476AE0122E3E
:1030F00047D006DC082E4CD0102E45D0112E06D11C
:1031000018E0132E27D01D2E4ED01E2E47D0202E75
:1031100058DB94F8480018B1214628460DF0AAFF64
:10312000B2B2214628460FF0B1FA48B3216C491CCF
:1031300020462BE0B4F9280010B302F045F906460A
:10314000216C04F021F88419204603F0CBFF7F287E
:1031500038D2401C0FE0B4F9280088B102F034F9ED
:103160000646216C04F010F88419204603F0BAFFDB
:10317000202827D9401E2070052128460CF0CEFCBF
:1031800020E0216C491C01E0216C491E00F0FEFA90
:1031900018E0216C491E00F0F9FA214600E00146D2
:1031A00028460DF067FF0DE094F84800012806D08E
:1031B000012084F84800216CBAE70AE005E000200D
:1031C00084F8480028460CF00CFCBDE8704004F080
:1031D000F1B870BD2DE9F041B0F90450044628461D
:1031E00002F0F2F8064628460DF0B6F907462146E9
:1031F00028460BF013FD00283DD020680B281DD079
:103200000C2804D00E281ED00F282FD110E0A06863
:1032100060B1017A29B10168284600F0E8F801217F
:1032200000E0022128460CF079FC1FE00321F9E7B9
:1032300029463046BDE8F0410FF0E6BD06F1280012
:1032400002F019F812E08FB1A068416800290DDD85
:10325000016809290AD00A2908D00D2906D01B299E
:1032600004D02846BDE8F041FFF730BF2046BDE856
:10327000F0410BF0E1BFBDE8F08100002DE9FF5FF8
:103280000446DDE90E57DDE911B6884691469A46B7
:1032900003F082FAB9B2502241F480501A4B0392E3
:1032A00040F002000095CDE9010353464A464146ED
:1032B00020460BF01DFF05001FD002F085F80446E4
:1032C000102259460BF056FE1C22104904F15400FE
:1032D000FEF76DF8012084F8490006B9082631B2DE
:1032E00061850020A0852085491C20460FF09EF9AD
:1032F00018B928460BF0CCFF002504F05BF804B0A9
:103300002846BDE8F09F0000D5310008E00200200B
:10331000F0B5044685B010461D46B4F90830668AFB
:1033200062690296CDE903320027CDE90017B4F9AE
:103330000C10B4F910302944B4F90A50B4F90E2035
:103340002844FFF79BFF050002D0618A00F0F4F9E2
:1033500005B02846F0BD000070B505004FF0000430
:1033600016D003F019FA284602F02EF8054690F818
:103370003800084951F82000FEF702FB0446E86BCC
:10338000FEF7F5FA2146FEF70AF9044604F012F8B2
:10339000204670BD88EE06082DE9F04107460D0075
:1033A000144622D000262E70002F1ED003F0F4F910
:1033B000384602F009F8B0F9280090B102F004F89C
:1033C000074604F00FFA0146A04200DD21463846C8
:1033D00003F0DAFE0446024639462846FDF7E7FFC9
:1033E0002E55BDE8F04103F0E5BFBDE8F0812DE9C1
:1033F000F0475FEA00080D464FD003F0CDF9404694
:1034000001F0E2FF0446B0F9280080B301F0DCFFD0
:103410008246E06D03F0E0FD814640460CF044F941
:103420000746504602F0B8FF0646606D00F0030004
:10343000012816D002280DD0216AA06D49690844E0
:103440002D1A6D1E504604F0CDF90146002D0FDAFD
:10345000002115E0B81B401C00EBD070A5EB600507
:10346000F0E7A16DB81B401A2D1A6D1CEAE710E0B9
:10347000B54205DC02462946504604F048F90146AB
:10348000204600F083F9484603F0A6FD40460CF0C4
:10349000A8FABDE8F04703F08DBFBDE8F087000053
:1034A0002DE9F0470546DDE9089A0E46174698468D
:1034B00003F072F91DB3284601F086FF0446124856
:1034C000E064124820650020C4E90F60C4E90C786C
:1034D00084F8389084F84AA0012084F848002846EF
:1034E00010F0A6FC204600F03DF92E2804D1216CF6
:1034F0002046491C00F04AF928460CF072FABDE853
:10350000F04703F057BF0000B10B0108313E01083E
:103510002DE9FC5F0600DDE90C7B0C4615469A465A
:1035200040D003F039F9204850F82700FEF728FA78
:1035300081462146FDF7FDFFFEF7A8FADFF86C8013
:1035400000224346FEF777F814F0F0F9FEF768FA28
:10355000044629464846FDF7ECFFFEF797FA00229D
:103560004346FEF768F814F0E1F9FEF759FA05460C
:1035700051464846FDF7DDFFFEF788FA0022434634
:10358000FEF759F814F0D2F9FEF74AFACDE9007BBC
:1035900003462A4621463046FFF782FFBDE8FC5F1E
:1035A00003F008BFBDE8FC9F88EE06080000E03F7E
:1035B00070B504000D4626D003F0EEF8204601F069
:1035C00003FF90F83800104951F82000FEF7D8F9B1
:1035D00001462846FDF7ADFF0546FEF757FA15F1FF
:1035E000FF4F4FF0000201D2084B00E0084BFEF7FE
:1035F00022F8FEF715FA0146204600F0B0F8BDE8C3
:10360000704003F0D7BE70BD88EE06080000E03FB2
:103610000000E0BF70B504000D460DD003F0BCF80B
:10362000204601F0D1FE18B1C56520460CF0D9F94D
:10363000BDE8704003F0BEBE70BD2DE9F04107004B
:103640000D4628D003F0A8F8384601F0BDFE044628
:10365000B0F92A00A8421AD00FDDB4F9280060B1F1
:1036600001F0B2FE064604F0BDF8A84205DD294689
:10367000304603F089FD00213154A08D291A491CE0
:1036800020460EF0D3FF658538460CF0AAF9BDE858
:10369000F04103F08FBEBDE8F0812DE9F0475FEA0D
:1036A0000009884646D003F077F8484601F08CFEC2
:1036B0000446B8F1000F2FD0B4F92800002620B13D
:1036C00001F082FEFDF7B2FE461C404604F08AF887
:1036D0000546B4F92A00A84200DA054629464046C4
:1036E00003F052FD471CB91B20460FF032F8D0B151
:1036F000B4F9280001F068FE3A464146FDF757FE4E
:103700002564B4F92A0085420DD194F848000128B7
:1037100009D16D1E256406E004F1280001F0ABFD1F
:103720000020A085206448460CF05BF9BDE8F04716
:1037300003F040BEBDE8F08770B504000D460DD023
:1037400003F02AF8204601F03FFE18B145652046F7
:103750000CF047F9BDE8704003F02CBE70BD0022AC
:1037600010F0D9BA70B504460020B4F92810002929
:103770000BD0084601F028FE0546216C03F004FD3D
:103780002844BDE8704003F0ADBC70BD70B505467F
:10379000B0F928000C46002819D001F015FE04F0FD
:1037A00021F895F8481001B10121002C00DA00241D
:1037B000844200DD0446B5F92A00401AA04200DA2E
:1037C0000446286CA04200D02C640020686470BDC0
:1037D0002DE9F05F202000F071F8304EDFF8B8805E
:1037E0002F4F4FF0010B4FF00209B51C4FF47A7ABE
:1037F000D8B1202000F05CF820212A4801F068FBB5
:10380000F978884245D07878002842D100242021D8
:10381000244801F05DFBF97888423AD0641C544595
:10382000F5DB87F801B0B8781FE0402000F046F8DB
:1038300000282ED0402000F03BF84021194801F02C
:1038400047FB3979884224D0B878002821D1002458
:103850004021144801F03CFB3979884219D0641C9E
:103860005445F5DB87F802B0787818B1BDE8F05F11
:1038700014F0EEBDD8F81010C8F8141032780121F9
:10388000094802F8059088F80090BDE8F05F0AF05A
:103890002ABEBDE8F09F0000D82F00202C34002065
:1038A000940100200018014000140040FFF790BF71
:1038B000014908607047000014040140064B0146AE
:1038C00000201A685B6902EA01020B4202D0002A5A
:1038D00000D00120704700000004014030B51F4AAD
:1038E0008179036899B311460C6824EA03040C60DB
:1038F0004B68046823EA04034B60047904EB020379
:103900001C68056844EA05041C608B68046823EAA7
:1039100004038B60CB68046823EA0403CB6043791B
:10392000A1F58061102B05D099180A680068024340
:103930000A6030BD01F581610A68036842EA03024A
:103940000A604A68006842EA00024A6030BDFFE748
:1039500000791044016899430160F7E700040140D1
:103960002DE9F04389B00F461646984605004FF002
:10397000000429D000F0CEF90446284600F0BAF938
:10398000814602F009FF284601F01EFD03A900F060
:10399000A4FAF80706D0BDF91C00001B801B401CD0
:1039A000822103E0BDF91800022130440095CDE9E1
:1039B000018123461A464946FEF74AFE0446002185
:1039C000FEF7B6FE03F0F6FC09B02046BDE8F08332
:1039D00010B50523FFF7C4FF0446054A0021FEF792
:1039E000CAFE044920460CF0A8F9204610BD00008C
:1039F00085110108A353010810B50723FFF7B0FF95
:103A00000446054A0021FEF7B6FE044920460CF0A4
:103A100094F9204610BD00000D120108B9530108A9
:103A200010B50823FFF79CFF0446054A0021FEF766
:103A3000A2FE044920460CF080F9204610BD00008B
:103A400033120108ED5301082DE9F041B0F904608B
:103A5000044688B0304601F0B7FC0546D4F808802B
:103A6000476E05E079682046884700281ED13F68E8
:103A7000002FF7D1206817284BD00CDC0D287CD004
:103A800004DC0B2877D00C2818D118E00F2812D0AE
:103A9000142813D132E01E284DD020287AD02628B1
:103AA0003AD02A280AD1A06818B1286608B0BDE823
:103AB000F081286E5CE028460FF08CFC89E0A46859
:103AC000002CF3D0207A0028F0D0B5F85A00000777
:103AD00002D430460CF0FAF930460BF0A7FAB5F8EC
:103AE0005A00C106E2D500230006DFD43E48214635
:103AF000B0F9002030460CF04DF9D7E7694628466A
:103B000000F0EBF90199C8F800100299C8F8041008
:103B1000CCE7B5F94C002BE0A0680228C6D1ADF87F
:103B20001A60A068079027200590B4F9060005A93F
:103B30000CF0B6FEBAE7A068012804D00021304698
:103B400000F039F9B2E7B5F95C000BF096FF20B14F
:103B5000B5F95C000CF0BAF905E0B5F94C000CF0D1
:103B600001FAA5F85C000121304600F024F900209C
:103B7000A0609BE701E028E00CE0B5F85A000007E0
:103B800027D4A0688068F8B1007AE8B130460CF01C
:103B90009DF91EE0A768BFB1B7F9020031460CF0ED
:103BA000C7FC20B1012130460FF096FF11E0002143
:103BB00030460FF091FFB7F9000031460CF0A6FC3B
:103BC00010B13888A5F85C0003E005F1500001F061
:103BD00052FB214630460BF021F800288DD02046BC
:103BE0000BF02AFB62E70000C80300202DE9F04F2C
:103BF00089B0044612A88846E0C891469A46DDF886
:103C00005CB002F0C9FD482146F48056274A039172
:103C1000B0B20095CDE9010253464A4641462046DE
:103C20000BF066FA05003BD001F0CEFB04463022D3
:103C300015990BF09FF920221D4904F12800FDF78A
:103C4000B6FB44F848BF04A967820027A782E78033
:103C5000E761A4F14804204600F03FF9154841F21D
:103C6000827103970095CDE90110BDF91A00BDF9E5
:103C70001610BDF91820431ABDF914005B1C121A66
:103C8000521C0BF035FAA4F84C0042F20400064234
:103C900002D128460BF050FB2846169900F0B7F8E1
:103CA00003F088FB09B02846BDE8F08F493A0008C8
:103CB000CC030020FF400008F0B587B014461D4635
:103CC000428A0DF1080C0C9FB0F908304668ACE848
:103CD000CC000022CDE90012B0F90C10B0F9103080
:103CE000B0F90E20B0F90A0029442044FFF77EFF06
:103CF00007B0F0BD70B505004FF0000408D002F029
:103D00004BFD284601F060FBB0F9424003F052FB46
:103D1000204670BD30B585B005004FF000040FD0CF
:103D200002F03AFD284601F04FFB0446694600F0D8
:103D3000D4F8B4F940400CB9BDF9004003F03AFBA7
:103D400005B0204630BD10B504000CD002F024FDB3
:103D5000204601F039FB014620460EF077FDBDE814
:103D6000104003F027BB10BD10B504000CD002F0CA
:103D700013FD204601F028FB014620460EF0ADFD64
:103D8000BDE8104003F016BB10BD70B5040011D0A3
:103D900002F002FD204601F017FB054601462046D1
:103DA0000FF038FE294620460FF007FEBDE87040B0
:103DB00003F000BB70BD70B504000D4609D002F0E1
:103DC000EBFC294620460FF087FEBDE8704003F06B
:103DD000F1BA70BD2DE9F04106460F4602F0DCFC59
:103DE0008EB1304601F0F0FA044600F0D7F80546EF
:103DF0002046A76200F04DF92946204600F0DDF884
:103E000030460BF0EEFDBDE8F04103F0D3BA70B5DB
:103E100004000D4610D002F0BFFC204601F0D4FA99
:103E20002946503003F04AFD10B120460BF0D9FD71
:103E3000BDE8704003F0BEBA70BD2DE9F0415FEA05
:103E400000080D4647D002F0A7FC404601F0BCFA3E
:103E50000446C08C014615B140F0200501E020F079
:103E60002005A94233D0E584204600F012F9B4F9C8
:103E700018601BE0304601F0A7FA0746B0F90200CF
:103E8000B4F90210401AB4F9421081420CD1B4F9CD
:103E90004C00B04208D0E08C8006304602D50CF0D1
:103EA00011F901E00BF010FDB7F91A60002EE1D115
:103EB000B4F85A00400607D5A806404602D50CF0D3
:103EC00001F901E00BF000FD40460BF08AFDBDE872
:103ED000F04103F06FBABDE8F0812DE9F05F4FF0DB
:103EE000000806460C46C146B0F942500CF0F3F902
:103EF000834630460CF0F6F98246F08C800601D5F8
:103F0000B6F94490304600F049F80746B6F94E003D
:103F100010B10BF0DCFB80462780A4F80280ABEBED
:103F2000050005EB0901A580401ECA19208102EB9E
:103F30000801E180AAEB0501491E6181A58120826B
:103F4000E819E581401E6082B6F9180022E001F010
:103F50003BFAB0F90010B6F90020B0F90430891A24
:103F60009A1AB0F90230B6F90270DB1BAB420FD1DE
:103F7000838B1B0606D5B4F910208A4208DB491E44
:103F8000218205E0B4F90C10914201DC521CA2819F
:103F9000B0F91A000028DAD1BDE8F09F10B501464B
:103FA0000020CA8C920607D5B1F94000002803D141
:103FB000886A02F041FA801C10BD2DE9F34F83B0EE
:103FC0000746FFF7EBFF0499B0EB010A5ED04FF014
:103FD000000840F6FF7BCBF10000002500902E4644
:103FE000B7F9184033E0204601F0EEF98146D0E9F8
:103FF0000010CDE90110B7F902004242B7F9000004
:10400000414201A802F029FFBDF90600B7F94210AC
:1040100088421AD1BDF90A10081A0499401C884236
:1040200013D1B9F81C00000609D5BDF90810009895
:1040300081420ADDBDF904002646009005E0BDF985
:104040000400584501DA25468346B9F91A40002C88
:10405000C9D155B15246114628460BF096FD08FBD2
:104060000AF1002228460BF04AFD5EB15246114685
:1040700030460BF08AFD08FB0AF041420022304630
:104080000BF03DFD08F101083543A2D105B0BDE8B4
:10409000F08F10B50446B0F84C0086B018B9B4F8EB
:1040A0004E00002829D069462046FFF716FFB4F9D4
:1040B0004C00A8B1BDF90620BDF904100BF0E9FCD5
:1040C000BDF90A00BDF90610421ABDF90800BDF994
:1040D0000410521C411A491CB4F94C000BF0C1FFEA
:1040E000B4F94E00002808D0BDF90610BDF9022031
:1040F0008A1ABDF904100BF0CCFC06B010BD2DE9F6
:10410000FE430446B0F9040007460BF087FA8046E8
:1041100001F05AF90546866C206817285CD008DC47
:104120000E283BD00F280BD0142855D015283ED18F
:1041300052E01E2818D01F2829D0222837D149E064
:10414000E86B6FF07041884203D005F0AFFE01F0DC
:1041500005FC002E06D007CC8DE80700ADF80470F2
:104160006846B047BDE8FE83A0680028FAD0B5F9DC
:104170005C0020B1B84202D00BF0A8FE04E0384643
:104180000BF0F0FEA5F85C000020A060EAE703B0A9
:1041900021464046BDE8F0430AF040BDA0684168B2
:1041A000002904DD006809280ED00A2808D09EB135
:1041B000A4F8048003B02046B446BDE8F04360474D
:1041C00038460BF0F9FE02E038460BF0CBFEA5F8BE
:1041D0005C00C7E7E86BD8E72046BDE8FE430BF07C
:1041E0002BB800B597B0002001211090CDE9110146
:1041F000139009071490CDE915010821CDE90201BA
:104200001021CDE904100190079009020890CDE932
:1042100009010B900C9006900D9010A80E900F9035
:1042200001A800F017F80121002000F003F817B0F2
:1042300000BD00004FF0204202EB80000029016821
:1042400002D041F0010101E0014A114001607047D4
:10425000FEFF0F0030B5D0E901121143D0E903236E
:104260001A43114342690368114382691143C269C9
:104270001143026A1143426A1143826A1143C26ABE
:104280001143026B11434FF0204242F82310816822
:10429000082906D1016802EB81010B6843F0400355
:1042A0000B60416BD1E9003443EA04138C68CD689C
:1042B000240244EA054423430C6943EA04534C694D
:1042C000896943EA04630B43016802EB81014B6097
:1042D000C16AB1F5804F07D000686FF0704102EB02
:1042E0008000C0F8041130BD816B0068D1E9003452
:1042F00043EA04138C680D69240244EA05542343FD
:104300004C69896943EA046302EB80000B43C0F8FF
:10431000043130BD70B505460E46032000F0BCF8F0
:104320000F4C2060042000F0B7F86060216801F0B5
:104330000F0100EB01202061052000F0ADF8A06026
:10434000062000F0A9F8E060A16801F00F0100EB81
:10435000012060612169C0F5F0702960306070BD96
:10436000D80100202DE9F047184E0025012781468D
:10437000C6F89C710620FBF7F1FE80244FF0000880
:10438000C6F898711220FBF7E9FED6F81C01012847
:1043900000D12543C6F898811220FBF7DFFE6408A0
:1043A000EED106F5CC76C6F804904FF00600FBF788
:1043B000D5FE37601220FBF7D1FEC6F8008077608B
:1043C0001220FBF7CBFE2846BDE8F0870080214293
:1043D00070B5094C0120606020604FF00C00FBF7C5
:1043E000BDFE002565600C20FBF7B8FE2560BDE82A
:1043F00070400620FBF7B2BE9881214270B5094C8F
:104400000020606020604FF00C00FBF7A7FE012544
:1044100025600C20FBF7A2FE6560BDE87040182007
:10442000FBF79CBE988121422DE9F0474FF0000830
:104430008024184D81464746012614EA090F1CD0F6
:10444000C5F89C610620FBF789FEC5F8986112202B
:10445000FBF784FEC5F898711220FBF77FFE640815
:10446000EBD1C5F89C61C5F898611220FBF776FE88
:10447000D5F81C01012803D004E0C5F89C71E1E7E0
:104480004FF00108C5F898711220FBF767FE40460F
:10449000BDE8F0870080214210B50446FFF798FF81
:1044A0007620FFF7C1FF2046FFF7BEFFFFF790FF22
:1044B0007720FFF7B9FF0120FFF754FF0446FFF70D
:1044C0009DFF204610BD000010B504460A2811D0FB
:1044D0000D2C13D002F060F90948C069016820462C
:1044E00088470848016809B120468847BDE8104060
:1044F00002F060BFBDE8104001F04ABB10BD0000F3
:10450000E0820020A00200202DE9F0410446C568A9
:1045100086B00F469046002002F051FD064625B1B8
:10452000287910B146F0020001E026F0020002F006
:1045300046FD2069012558B1D4E902128DE8260014
:10454000039563882288046841463846A04718E0EE
:10455000E06805F06AFB28B9E088012801D0002056
:1045600000E00B48A288E388A1680095CDE904101B
:10457000CDE902320195638822884146384605F02C
:10458000B7F906B03046BDE8F04102F018BD0000B2
:10459000E08200201CB50024019401AC009400F0DE
:1045A000E5F81CBD2DE9FF4F83B081460598109EAC
:1045B000A0EB090400208A460090A3EB0A083568A6
:1045C0009B4654EA080018D02046FDF7FFFE074638
:1045D0004046FDF7FBFE87420BDA20464446804604
:1045E0004846D14682460598CDF814B0834601204E
:1045F0000090002C07DD204606E007B04846BDE8E5
:10460000F04F00F037B96042A0420AD04846DDF8CA
:10461000149005906442C8F10008DA464FF0FF306C
:1046200000E0012083465048B8F1000F12D000BFCF
:1046300004EBD4714FEA610501DAC5F100054A487F
:10464000807E78B3BBF1000F02DA3068204430601E
:10465000002775E000990029817E1FD011B1002745
:10466000804614E0059A07B049465046BDE8F04F31
:1046700005F078BA28466D1C0FF070FA30B9D8F8FA
:104680005C0009EB07014268504690477F1CA74237
:10469000F0DD6D1E356007B0BDE8F08F19B1002761
:1046A000804616E018E0C06D059A5146036807B0D1
:1046B0004846BDE8F04F184728466D1C0FF04EFAEB
:1046C00030B9D8F85C1009EB07004A6851469047AA
:1046D0007F1CA742F0DDDCE700260EE008FB065059
:1046E00090FBF4F101EB0A00009949B11E4A09EB75
:1046F0000601D26D52689047761CA642EEDDCAE7ED
:10470000194909EB0603C96D4A6801461846F2E7E4
:1047100008FB075090FBF4F101EB0A0001903168AF
:1047200001EB0B0030600FF019FA40B90098A0B10E
:104730000D4809EB0701C06D4268019890477F1C46
:10474000A742E5DDBBF1000F02DA3068204430609B
:104750003168A1EB0B0030609DE7034909EB0700CE
:10476000C96D4A680199E9E7E08200202DE9FF4719
:1047700088463F4907460C98097E15461E46012982
:104780001DD0781BA8EB060250EA02031CD0A1F151
:10479000010911460FF0C4FF00F58060824603F066
:1047A00067F900FB09F4504603F066F900FB09F0D5
:1047B000002C0BDAC4F5007189124C4209E000901C
:1047C00041463846FFF7EEFEBDE8FF8704F500746A
:1047D000A412002804DAC0F500708012404202E002
:1047E00000F500708012002C04DD611C01EBD1711A
:1047F000491003E004EBD4714910641E04EBD47239
:104800005310002804DD421C02EBD272521003E068
:1048100000EBD0725210401E7C18ADF8004008EB3F
:104820000204ADF80240FC1A00EBD0704010ADF865
:104830000440A8EB0004EB1AADF80830301AADF8CC
:104840000A006818ADF80C00B018ADF80E0000238F
:10485000ADF806401A460421684600F075F8414656
:1048600038460DF069F8314628460DF065F8ABE79B
:10487000E0820020064B1A7E012A05D0521E02EB70
:10488000D272521000F006B8DA6D5268104700007C
:10489000E08200202DE9F05F0646884640F2C32002
:1048A00050434FF47A7190FBF1F702FB02F002EBF8
:1048B000D27100EB610B1446B118224A7F1C301BE9
:1048C000D26D13680A4641469847012536E000BF7D
:1048D00005FB05F004FB040159451ADDBC4217DD58
:1048E000184B06EB0509A6EB050ADB6DA9F10102E1
:1048F00008EB04011B680AF101009847114BA9F16C
:104900000102A8EB0401DB6D0AF101001B68984766
:10491000641E0C4806EB040AA6EB0409C06D08EB04
:10492000050152460368484698470648A8EB05012A
:104930005246C06D0368484698476D1CBD42C7DDAE
:10494000BDE8F09FE08200202DE9FF4F40F6FF74A4
:104950000F46664283B081469B4600210BE000BFB4
:1049600009EB8100B0F90200A04200DA0446B0422F
:1049700000DD0646491CB942F2DB67484069002861
:104980000DD0B0F90620A2EB0B01B14200DA0E46C1
:10499000B0F90210A1EB0B00A04200DD0446B4E028
:1049A000DFF878A100200546CAF8000089E0781EEB
:1049B000854201DA691C00E0002109EB850C09EB56
:1049C0008103BCF90200B3F90220A042904642D113
:1049D000A04517D139F92520059804EB0B0C10449C
:1049E00039F92120059953184B499842C96DD1F8DE
:1049F000008002DA1A46614602E002466146184625
:104A0000C0475DE0284622460023A7F1010C0AE0DA
:104A100008B1401E00E0781E09EB8001B1F90210D8
:104A2000914203D15B1C6345F2DB2146A14247D092
:104A300039F92500A1EB0402A8EB0403DDF814C04A
:104A40005A403BD4344A604404EB0B01D26D1368E6
:104A50000246984734E0A04532D001DBA04203DD96
:104A6000A0422DDBA2422BDCE04690420ADC01464C
:104A7000A04225DC9446A24222DBB8F90000B3F93B
:104A8000002009E01146A2421ADC8446A04217DB4E
:104A9000B3F90000B8F90020631A121A5A43002A29
:104AA000ACEB010302DD02EB630202E0A2EB630266
:104AB000521CACEB010192FBF1F108440CF00EF832
:104AC0006D1CBD42FFF673AF0598009004EB0B0020
:104AD000019000208046054612E01149B8F1000F10
:104AE00031F915A008D0009901EB0A0208440A49DF
:104AF000C96D0B680199984788F0010850466D1CF4
:104B0000064909688D42E8DB641CB4427FF748AF70
:104B100007B0BDE8F08F0000E082002074030020A1
:104B20006883002010B5002002F01DFA6FF07F406E
:104B300002F030FA012002F06BFA002002F076FA5F
:104B4000002002F081FA002002F039FA034802F056
:104B500043FABDE81040002002F04CBA34020708C6
:104B60002DE9F84F4FF002098DF802904FF40070D4
:104B7000ADF8000018268DF803606946874800F0FC
:104B80002DF94FF48060ADF8000004258DF8035036
:104B90006946824800F022F98DF80290ADF8005085
:104BA0008DF8036069467D4800F018F94FF0080859
:104BB000ADF800808DF803506946784800F00EF992
:104BC00003248DF802404FF4807BADF800B04820FC
:104BD0008DF803006946714800F000F959466F48A6
:104BE00000F07FF9E020ADF800008DF802408DF86C
:104BF00003606946694800F0F1F8ADF800801027BD
:104C00008DF803706946664800F0E8F84FF0400AF6
:104C1000ADF800A08DF803506946624800F0DEF858
:104C20004FF46040ADF800008DF802408DF803604D
:104C300069465A4800F0D2F8ADF800A08DF803504C
:104C40006946584800F0CAF8A802ADF800008DF88F
:104C500003706946544800F0C1F80121534800F040
:104C60000BF93820ADF800008DF802408DF8036094
:104C700069464D4800F0B2F8ADF800808DF8037039
:104C800069464B4800F0AAF84FF001088DF8028001
:104C9000ADF800508DF803706946454800F09EF865
:104CA0008DF802804FF0D00AADF800A014208DF8E6
:104CB000030069463C4800F091F82020ADF8000060
:104CC0008DF802408DF803706946354800F086F88B
:104CD0004CF20370ADF800008DF802408DF80360CF
:104CE0006946304800F07AF84FF68070ADF8000061
:104CF0008DF802408DF8036069462D4800F06EF88B
:104D0000ADF800808DF802408DF8037069462348A5
:104D100000F064F842F2B000ADF800008DF80240F7
:104D20008DF8036069461F4800F058F80A20FBF729
:104D30000DFA5946194800F0D2F80A20FBF706FA96
:104D40005946164800F0CDF80121144800F0C7F884
:104D50000121124800F0C5F82002ADF800008DF8DE
:104D600002408DF8035069460F4800F037F8702074
:104D7000ADF800008DF802408DF8035069460C48EC
:104D800000F02CF8ADF800A08DF802908DF80350DB
:104D90006946034800F022F8BDE8F88F000801409A
:104DA0000010014000140140000C014000023000DE
:104DB0000018014010B58A0721F003040649120FBC
:104DC00021440F238C6893409C438C608B689040F7
:104DD00003438B6010BD000000000140F0B5CC78AB
:104DE000002204F00F03E40601D58C7823430C88DD
:104DF0004FF00F0C14F0FF0F4FF0010E1AD00568A2
:104E00000E880EFA02F42640A6420FD196000CFA44
:104E100006F7BD4303FA06F63543CE78282E02D0B6
:104E2000482E02D002E0446100E00461521C082ACE
:104E3000E6D305600A88FF2A1DD94568002202F1E1
:104E400008060EFA06F40E882640A6420FD19600F8
:104E50000CFA06F725EA070703FA06F5CE783D4374
:104E6000282E00D14461CE78482E00D10461521C16
:104E7000082AE4D34560F0BDF0B5144C002801DAEF
:104E8000E36900E06368420D120185B2C0F3015787
:104E90009540C0F30346032F05D0C2020AD5032272
:104EA000B240934307E023F07062636823F07063BD
:104EB000636002E0AB4343F0706201B12A43002813
:104EC00001DAE261F0BD6260F0BD00000000014067
:104ED0000246002092680A4200D0012070474161DA
:104EE00070470161704700002DE9F04FDFF81CB1F9
:104EF00091B04FF0FF35BBF926200692DBF81C304D
:104F0000BBF928A09C69A189884206D3E289824224
:104F100003D3461AD4F8008012E0D4E90182002AB3
:104F20006BD01188884268D35588854265D3401A72
:104F3000516880B201EB8000B0F90060B0F9025016
:104F4000701C5AD0187DA27C014600FB02F9207C1F
:104F5000CDE90810BBF92E70384604F0F7FFC0B257
:104F60000E9006FB0980A27C0126CDF814B00296B3
:104F7000CDE90320DBF81C00DDE90832C17D807D2E
:104F8000CDE900015146069804F0B2FC681C16D029
:104F900047F0020004F0DAFFA27C05FB0981CDE9AD
:104FA000041BCDE90262DBF81C00DDE90832C17D9B
:104FB000807DCDE900015146069804F099FCDBF8AC
:104FC0001C005D46417D007D814213D9022F11D026
:104FD00087F0040004F0BAFFE869037D427D857D17
:104FE00003FB02A102EB0A03099A069802FB0502E1
:104FF00004F0D6FD0E9804F0A9FFBBF82610627CE1
:105000001144ABF8261011B0BDE8F08FE08200200B
:105010000248C0698069407C70470000E08200203F
:1050200002200880704780698289914202D3C28938
:105030008A4210D2806880B102888A420DD84388A3
:105040008B420AD3406800EB8100A0EB8200B0F9EC
:105050000000002801DB012070470020704700009D
:105060002DE9F047334C054686B0E069B4F92E804F
:105070002946806900F062F8002857D0416800880E
:10508000281A01EBC0054046AE7804F05FFFDFF858
:10509000A890824699F8000038B1E269B4F9260078
:1050A0006978927D01FB1200E08468680121CDE9F6
:1050B0000404CDE90216E069C27D817DCDE90012CC
:1050C000037D2A78B4F92810B4F9260004F010FC06
:1050D000E069467D077DBE4219D9C07D46434743FE
:1050E000B8F1020F13D001F0FAF8804601F0D5F8BC
:1050F00001F050FFB4F9260029784218B4F92810BD
:105100008B19394404F04CFD404601F043FF5046F2
:1051100004F01CFF99F80000002807D1E269B4F9F7
:1051200026006978927D01FB0200E08406B0BDE8AC
:10513000F0870000E0820020B402002006E0028830
:105140008A4202D842888A4202D280680028F6D178
:105150007047000070B5094D04462146E869806932
:10516000FFF7ECFF002807D041680088201A11F8EB
:105170003000E969897D484370BD0000E08200206D
:1051800001200880704710B58069FFF7D7FF00281D
:1051900000D0012010BD00002DE9F04100240A4D8F
:1051A000274600BF04EB840000EBC40605EBC600F5
:1051B000001D64220549FCF7FAF8641C45F83670B6
:1051C000042CEFDBBDE8F0814CE50020E0820020FC
:1051D00002494FF0FF30086002F02AB98403002032
:1051E00070B505460C4601F0D7FA64B1204600F0D0
:1051F00013F806000CD000F0E7F822462DB129463E
:10520000FCF7D5F804E0002070BD002102F0C0FBDF
:1052100002F0D0F8304670BD10B5040009D001F09E
:10522000BBFA20460BF07AFD044602F0C3F8204694
:1052300010BD002010BD70B5054601F0ADFA28463E
:10524000FFF7EAFF040005D000F0BEF82A4600216F
:1052500002F09EFB02F0AEF8204670BD10B50400CF
:1052600008D001F099FA20460CF038FFBDE8104054
:1052700002F0A0B810BD10B5044601F08DFAB4F9E3
:105280000000FFF7EBFF00202080BDE8104002F097
:1052900091B8000070B506460D46002405E000BF39
:1052A00006EB4400FFF7E7FF641CAC42F8DB70BD7F
:1052B00010B5002401F070FA0BF084FE00211248B2
:1052C0000CE000BF30F831105B88194430F8323000
:1052D000591A09B2A14200DD0C46114600EBC10388
:1052E0009A88002AEED130F8312000EBC10044F654
:1052F000206140881044081A00B2A04200DD044634
:1053000002F058F8204610BDA0D10020002120B1A5
:10531000034901EBC000B0F90210084670470000D5
:10532000A0D100200A4840F272210422416081602D
:1053300044F62061C181018200210160818105481C
:10534000428001808180044901200870704700007C
:1053500038E50020A0D100207803002002488168B1
:10536000491C816070470000780300202DE9F0415E
:1053700006460C4608B2FFF74FFF050019D0C6B12C
:105380003046FFF7C3FFA04200DA044601F004FAFA
:10539000284600F019F80746304600F015F8014697
:1053A00022463846FCF703F802F004F83046FFF7CF
:1053B00055FF2846BDE8F08102488168491E81609A
:1053C0007047000078030020002804D0024931F91A
:1053D0003000024908447047A0D10020808300209B
:1053E0002DE9F0414FF0000804460F4615464646A9
:1053F00001F0D2F935B129B23846FFF7F1FE5FEA84
:10540000000816D02788B4F902007900891CFFF73C
:10541000ADFF05000FD0FFF7D7FF20F8178065809C
:105420002088401CA4F8000001F0C4FF3046BDE80D
:10543000F0810126F8E74046FFF710FFF9E700008A
:1054400070B50546B0F90200002812D0FFF7BCFF86
:105450000646002405E000BF06EB4400FFF70BFF03
:10546000641C2888A042F7DCA81CFFF704FF00207A
:10547000288070BD70B5064600880C46A0421FD932
:10548000B6F90250002D1BD001F086F92846FFF72F
:105490009BFF054600EB4400FFF7EDFE3088401E01
:1054A00080B23080401E05E005EB4401498825F8B4
:1054B0001410641C8442F7DDBDE8704001F07ABF2F
:1054C00070BD0088704710B502460C461188002058
:1054D000A14208D9B2F90210002904D00846FFF70A
:1054E00073FF30F9140010BD10B50024FFF7EBFF77
:1054F00010B1FFF769FF0446204610BD2DE9F041C9
:10550000044600880D46A84228D94000801C00B2FD
:10551000FFF791FE060021D0FFF756FF8046B4F951
:105520000200FFF751FF074601466A004046FBF7BD
:105530003EFF208807EB4501401B420008EB450079
:10554000801CFBF734FFB4F90200FFF787FE66808A
:105550002088401C20800120BDE8F0810020FBE76E
:105560002DE9F041154606460F460024FFF7C6FF19
:1055700030B12B4600223946304600F02DF8044663
:105580002046BDE8F0812DE9F8438046894617465C
:10559000002410B2FFF74FFEADF80000C8B1494635
:1055A0004046FFF7A1FF0646BDF90000FFF70CFFDC
:1055B00005463A463146FBF7FAFEBDF9002049465A
:1055C000404600F036F818B16846FFF754FE00E098
:1055D0002C462046BDE8F8832DE9F0410D460188B0
:1055E000002417461E46A94220D9B0F90200E8B1AE
:1055F000FFF7EAFE00EB4505B5F9004024B120466F
:10560000FFF784FEB04208D030B2FFF714FE04006A
:1056100003D02846FFF72FFE2C803FB134B120463F
:10562000FFF7D2FE32463946FBF7C1FE2046BDE801
:10563000F08170B515460C4602880121A2420BD9B3
:10564000B0F9020040B1FFF7BFFE00EB4404204672
:10565000FFF711FE25800021084670BDF0B5002837
:1056600007DA1C682D25661C1E6025704042012447
:1056700000E00024091BC9B20AB1491EC9B2124E8A
:1056800056F82140844200D8601EDFF840C0B9B10E
:105690000C46491EC9B2944205D11C689CF80070A2
:1056A000651C1D60277056F8215090FBF5F4E4B29C
:1056B00004FB15001D6830346F1C1F602C70E6E77A
:1056C000196800200870F0BD88EE060894020020DA
:1056D00010B5002802DA2D22404200E02B220B6890
:1056E0005C1C0C601A70096800220A7010BD000072
:1056F0002DE9F041074601F04FF81B4CA0688046A9
:1057000087422BD03E68F0680568042D0ADD03252A
:10571000F068806850F8250004F0D8F81249283164
:1057200021F815006D1EF3D20CF074FF30887188DB
:1057300048434500E068854205D0B4F90400FFF70E
:105740008DFD0020A08028B2FFF775FDA08001200C
:105750006070A7600BF018FC0EF018FB01F02AFE39
:105760004046BDE8F0810000300400202DE9F34FF1
:105770009BB001F011F87849B1F9040000287DD000
:105780000B691B9A934201D0012200E000224C6970
:105790001C9B9C4201D0012300E000231A43EED061
:1057A0006D49497800296AD06B4DA9680968039151
:1057B000FFF70AFE1090A86801681B980C880594F2
:1057C0002A69A0EB02084FF0FF30B8F1000F07DDA7
:1057D00001220F9200221192621EC346099207E035
:1057E000621E1192424404464FF0000B0F90099242
:1057F0001C9A6B69A2EB0309B9F1000F09DD0120C6
:105800000E90B1F802A00025AAF10100CDE90A909E
:1058100092E00E904D8882466D1E00200A9005EBA6
:1058200009000B9088E000BF05EB090002900A9880
:10583000854204DB0B98854201DC012000E000205A
:1058400016900A990298884204DB0B99884201DC81
:10585000012000E000201790119E69E0109806EBEF
:10586000080700EB460105982A46684301EB400013
:1058700015903146039800F0C9FC01E066E05EE057
:1058800018905E4506DB0998864203DC169808B13D
:10589000012000E000205F4506DB09998F4203DC10
:1058A000179909B1012100E0002119911899A1B1BE
:1058B00038B1A5EB0902A6EB0801039800F0A6FC9D
:1058C00058B91598028824481830B0F90210B0F978
:1058D0000000294430440EF07DF9199840B1109829
:1058E000059900EB47020298484332F810000BE09C
:1058F000194802991830B0F90220B0F9000011449B
:1059000038440CF0EDFC80B215990880189868B105
:105910000CF078FF82B2104802991830B0F90230CA
:10592000B0F90000194438440EF054F90F980644B9
:10593000A64293D10E98054455457FF475AF0648AD
:105940001B9901611C9941610BF01EFB1DB0BDE864
:10595000F04F01F02FBD00003004002010B50021F1
:10596000084600F06DFD40F6FF725042BDE8104061
:1059700013460146AFF300802DE9FC4104460D4675
:1059800016461F4600F008FF042004F0DFFA124913
:105990008046486C896C044406440D440F44ADF8BD
:1059A0000040ADF80460ADF80250ADF806706846EE
:1059B0000AF0A0FC07E03B4632462946204604F0A8
:1059C000EFF80AF045FC0028F5D1404604F0BEFA95
:1059D00001F0F0FCBDE8FC81E0820020B0F9063067
:1059E000B0F90420B0F90210B0F90000FFF7C4BF0D
:1059F0002DE9F84304460D461946DDE908030092F7
:105A0000024626682046B047060026D009F03FFD32
:105A10008146618A304609F06DF930460AF052FB42
:105A200048460AF04FFB4FF000080BE0CDF800802D
:105A300054F8187F00231A4649462046B84770B1EB
:105A40000AF040FB6D1E002DF0DC30460AF08AFAA9
:105A50001D2148460AF051F93046BDE8F88330462A
:105A600009F016FC0020F8E72DE9F04105000E468C
:105A700017464FF0000410D00C20FFF7DCFB0400A9
:105A80000BD000F089FE2046FFF79EFC0449C0E9D8
:105A900000150681478101F08DFC2046BDE8F081AC
:105AA000540207082DE9F04107460D4616460C2022
:105AB000FFF7C1FB04000BD000F06EFE2046FFF79D
:105AC00083FC0549C0E900170581468101F072FC9D
:105AD0002046BDE8F0810000881E070870B50C461E
