:020000040800F2
:1000000040F9002065010008A33700081F2B0008F5
:10001000A1370008090D0008F15200080000000097
:10002000000000000000000000000000DB4A0008A3
:100030000B0D000800000000CB010008714B000808
:100040007F0100087F0100087F0100087F01000890
:100050007F0100087F0100087F0100087F01000880
:100060007F0100087F0100087F0100087F01000870
:100070007F0100087F0100087F0100087F01000860
:100080007F0100087F0100087F0100087F01000850
:100090007F0100087F0100087F010008111400089B
:1000A0007F0100087F0100087F0100087F01000830
:1000B000C54C00087F010008FD4D00087F010008C5
:1000C0007F0100087F0100087F0100087F01000810
:1000D0007F0100087F0100087F0100087F01000800
:1000E0007F0100087F0100087F0100087F010008F0
:1000F0007F0100087F0100087F0100087F010008E0
:100100007F0100087F010008FF4D00087F01000803
:100110007F0100087F0100084D4E0008654E000871
:100120007F0100087F0100087F0100087F010008AF
:10013000DFF80CD000F0C8FC0048004779860008C2
:1001400040F9002040BA7047C0BA70470138FDD16D
:100150007047000040BA7047C0BA70470138FDD1FF
:10016000704700000648804706480047FEE7FEE764
:10017000FEE7FEE7FEE7FEE7FEE7FEE7FEE7FEE757
:10018000954B000831010008EFF3108072B67047FC
:1001900080F3108870471D484FF0FF010170002068
:1001A00080F309881A48012101701A484FF08051E4
:1001B000016062B6FEE717484FF08051016070475A
:1001C00014484FF080510160704772B6EFF3098018
:1001D00028B1203880E8F00F0F490968086000B5A1
:1001E0000E4880475DF804EB0D480E490A7802700E
:1001F00009480D490A680260106890E8F00F203045
:1002000080F309884EF0040E62B6704722ED00E0DC
:100210001F01002004ED00E038010020B53D00087A
:100220001C0100201D0100204001002010B5431AD0
:10023000934209D28318881803E010F8011D03F8CF
:10024000011D521EF9D210BD40EA01039B0703D0E5
:1002500009E008C9121F08C0042AFAD203E011F805
:10026000013B00F8013B521EF9D210BD30B50446E7
:100270000020034600E05B1C934203D2E05CCD5CAF
:10028000401BF8D030BDF0B480EA0102D20F430029
:10029000B3EB410F02D20346084619464B0042D049
:1002A000C30DDDB2C1F3C7542C1B202C35DAC1F3CA
:1002B000160141F4000502B16D42C4F1200605FAB1
:1002C00006F125412844B3EBD05F23D0C2B1012C05
:1002D000A0EBC35009DCF0BC4FF0004202EAC3526D
:1002E00000F50000DBB200F05FBB400000F1807061
:1002F00000EBC350A0F1807040EAD170490009E0E2
:10030000490841EAC071A0EBC35000F50000400865
:1003100000EBC350F0BC00F03EBB5142012303EBA5
:100320004101801AF6E7F0BC704781F00041AAE76E
:1003300080F00040A7E780EA010210B502F0004219
:10034000400026D04B0023D04FEA106101EB13612F
:10035000C0F35600C3F3560340F4000043F4000317
:10036000A0FB0330A1F17F014FEA00401C0401D043
:1003700000F1010050EA134001D44000491EC3B20D
:100380000C0604EBD010401C4008802B02D003E088
:10039000002010BD20F00100002900DA00201043E9
:1003A00010BD80EA010202F0004330B430F0004298
:1003B00021F0004015D0A0B1C0F3C755C2F3C75417
:1003C000C2F31601C0F31600651B41F4000140F4AE
:1003D00000007D35814201D36D1C00E04900002DF5
:1003E00002DA30BC002070474FF400020024814242
:1003F00001D3091A144352084FEA4101F7D151B110
:10040000814202D14FF0004105E002D24FF00101DC
:1004100001E06FF0010104EBC55030BC184400F05E
:10042000BABA420005D0C0F3C7525242914201DC31
:100430000020704700EBC15070472DE9FE4F074682
:1004400081EA0300C00F0E46019021F0004123F025
:100450000044B81AA14105D23846314617461E4617
:100460000B46024623F00040104304D13846314683
:1004700003B0BDE8F08F350DC5F30A00C3F30A5190
:100480000290401A0090402867DAC3F3130040F44A
:10049000801B0198924620B10023D2EB030A63EB44
:1004A0000B0B00985946C0F14002504600F042FA4A
:1004B00080460C4650465946009A00F05AFAC01938
:1004C0007141EF1785EA11533B433FD0019A4AB37C
:1004D000009A012A11DC0022801A61EB05514FF0CD
:1004E000004303EA0555CDE90025801841F5801148
:1004F0004246234600F094FABAE72E050025401B39
:1005000061EB0601401941F580120018524128188C
:10051000A6F5001343EB020140EAD47018EB08087B
:10052000644113E064084FEA38084FF0000244EADF
:10053000C0744FEA0553801A61EB0301801841F53E
:10054000801149084FEA300080185941424623463D
:1005500003B0BDE8F04F00F056BA01980122400008
:100560000023D0EB020263EBE07301984FEAE074E2
:10057000381A66EB0401EBE783F000435DE781F096
:1005800000415AE72DE9FE4F81EA030421F00045BE
:1005900004F0004423F000414FF0000A009450EAB8
:1005A000050302D052EA010304D10020014603B042
:1005B000BDE8F08FC1F30A53C5F30A542344A3F2F4
:1005C000F3330193A0FB02B3C5F3130545F4801C7C
:1005D000C1F3130141F480180CFB023300FB083E09
:1005E000810A930A41EA8C5143EA8853A1FB0347ED
:1005F0004FEA9C2505FB03734FEA982601FB06375B
:100600003D05260545EA1435BBEB06016EEB0503F7
:10061000850E920E45EA8C1542EA8812A5FB020669
:10062000261E67EB00070C0D44EA0334A61947EBBE
:100630001350C1F313044FF000031946E5FB020108
:100640004FEA033545EA1455019B4FEA0432009CFA
:10065000A3F10C03CDE900A445EA060502932B465D
:1006600000F0DEF9A3E72DE9F04D81EA030404F080
:10067000004B21F0004714464FF0000A23F00041E0
:1006800050EA070220D054EA01021DD0C1F30A55F6
:100690000246C1F31300C7F30A56C7F3130340F42D
:1006A000801143F48013A6EB0508101BD64608F210
:1006B000FD3873EB010002D308F1010801E0921844
:1006C0005B41B8F1000F03DA00200146BDE8F08D70
:1006D00000204FF48015064607460EE0B2EB040CEE
:1006E00073EB010C04D3121B064363EB01032F438E
:1006F0006D084FEA300092185B4150EA050CEDD1CD
:1007000052EA030012D082EA040083EA010528437A
:1007100003D100224FF0004308E0101B8B4102D2AE
:100720000122002302E06FF0010253101AEB0600D1
:1007300047EB085110EB0A0041EB0B01BDE8F04D0F
:1007400000F061B970B521F0004303430CD0C1F350
:100750000A540026D4EB060566EB0603D417AD1A3F
:10076000A34102DB0020014670BD001C41EB025199
:1007700070BD96230022114600F016B90EB5C10FC8
:1007800080EAE0700844CA07002140F233438DE854
:100790000E000A460B4600F043F903B000BD0EB54B
:1007A000002240F23343CDE9002202931346002198
:1007B00000F036F903B000BD00F0004220F0004028
:1007C000C10DC0F3160040F400007F2901DA0020BB
:1007D0007047962903DCC1F19601C84001E09639C3
:1007E0008840002AF4D04042704720F00040C10DFC
:1007F000C0F3160040F400007F2901DA00207047A2
:10080000962903DCC1F19601C840704796398840AB
:10081000704770B5C1F30A5201F000450024C1F3DE
:10082000130140F2FF3341F480119A4201DA0020B3
:1008300070BD40F233439A42A2F2334203DC52428B
:1008400000F087F800E090402C43F1D0404270BDAA
:10085000C1F30A52C1F3130140F2FF3341F4801196
:100860009A4201DA0020704740F233439A42A2F2E2
:10087000334202DC524200F06CB89040704700F006
:10088000004230F000400DD0C10D01F5607142EA28
:1008900001510022C0F31600520742EAD00240077D
:1008A00011437047002001467047000030B5002911
:1008B00004DB4FF00044404264EB0101002B04DBF9
:1008C0004FF00044524264EB03038B4208BF824264
:1008D00030BD000001F0004230B421F0004150EA88
:1008E000010306D00B0DA3F56073C1F31301002BB8
:1008F00002DC30BC00207047440F44EAC104C10050
:10090000A01830BC00EBC35000F045B8002801DB54
:10091000C0F10040002901DBC1F100418142704774
:10092000002801DBC0F10040002901DBC1F10041DA
:1009300088427047202A04DB203A00FA02F10020A6
:1009400070479140C2F1200320FA03F3194390400D
:100950007047202A04DB203A21FA02F00021704778
:1009600021FA02F3D040C2F1200291400843194617
:100970007047202A06DBCB17203A41FA02F043EAFF
:10098000E07306E041FA02F3D040C2F12002914048
:100990000843194670470029A8BF7047401C49000A
:1009A00008BF20F00100704710B4B0FA80FC00FAD4
:1009B0000CF050EA010404BF10BC704749B1CCF1FF
:1009C000200421FA04F411FA0CF118BF012121438B
:1009D0000843A3EB0C01CB1D4FEA00614FEA102046
:1009E00048BF0020BCBF10BC704700EBC350104490
:1009F0000029A4BF10BC7047401C490008BF20F06C
:100A0000010010BC704710B5002B08DA401C41F102
:100A1000000192185B411A4301D120F0010010BD82
:100A20002DE9FF4D934611B1B1FA81F202E0B0FA1F
:100A300080F220329246FFF77DFF039A07468846F0
:100A400040EA0B0011435B46084304D13846414657
:100A500004B0BDE8F08D114653EA020016D0CAF189
:100A600040025846FFF775FF04460D464FF0010659
:100A7000584652460399FFF75DFF084300D1002610
:100A8000344345EAE675274345EA08080E984FF0D7
:100A90000005A0EB0A014FEAD7200A314FEA47537D
:100AA0002A4640EA48504FEAD82402D500200146A1
:100AB000CEE7281844EB0151DDE90C45001904B0DC
:100AC0006941BDE8F04D9EE7064C074D06E0E06841
:100AD00040F0010394E8070098471034AC42F6D385
:100AE000FFF72AFB0CAE00082CAE000870B501EB36
:100AF000020410F8015B15F0070301D110F8013B67
:100B00002A1106D110F8012B03E010F8016B01F84F
:100B1000016B5B1EF9D12B0705D40023521E0FD4A5
:100B200001F8013BFAE710F8013B02F10202A1EBE8
:100B3000030303E013F8015B01F8015B521EF9D5D2
:100B4000A142D6D3002070BD00B585B0032319485B
:100B50000DF1040C00225902ACE80F000523164ADF
:100B600000211648009302F0FFFF13480DF1040C1A
:100B7000032300224FF40071001DACE80F00042392
:100B800000F2FC7200210E48009302F0EDFF0D48C8
:100B90000DF1040C032300224FF48071ACE80F0028
:100BA000072300F57F7200210748009302F0DCFF65
:100BB00005B000BD58040020541C00204B0C000858
:100BC000CD0B000858240020290C0008154E0125E3
:100BD00086B00024002205231146104603F022F9B6
:100BE0001021304600F098FF38B18DF8084000948D
:100BF0006846019401F0BEFDECE704A903A800F0EB
:100C0000F9FC03980090049801908DF8085068460C
:100C100001F0B0FD002214231146104603F002F942
:100C2000D8E700000010014000220A2311461046B8
:100C300003F0F8F8F8E700F021F802F079FFFFF789
:100C400083FFFF2003F060F8FBE702F061FDFCE7A3
:100C500010B5012003F0D8FBBDE81040002003F0E0
:100C6000D3BB00000149085A70470000006C0040E7
:100C7000014A115070470000006C004008B503F0B5
:100C8000C9FB00F091FD03F047FE04F07DFA00F08F
:100C900019FC02F0BBFB02F082FC02F047FC0020D2
:100CA00006F0D7FF03F05CFC02F07CFD03F074FE5D
:100CB00008F0C2FB01F01EFB002001F08DFD0021B9
:100CC000F0234FF4A072084601F03EFA002002F033
:100CD0000DF800230093642350222D21012001F000
:100CE0004BFB05A001F0B2F94FF6FF7001F0FEFFDB
:100CF000BDE8084003F02DB948656C6C6F20776F34
:100D0000726C642100000000FEE770472DE9F0419D
:100D10000446104815461E46007C8FB2800708D551
:100D200014E02A883946A0B202F006FB761E641C45
:100D3000AD1C002EF5DCBDE8F0812A881AB13946D9
:100D4000A0B202F0F9FA761E641CAD1C002EF4DC91
:100D5000F1E700003C7100202DE9F05F0546DDE978
:100D60000A408B46B0F80090B0F802808F481678A1
:100D70009246007C1FFA8BF710F0030103F0070086
:100D800004D0012912D0022918D107E0082815D271
:100D9000DFE800F068727D8893A0ABB608280DD21A
:100DA000DFE800F00C151F29333D4751082805D214
:100DB000DFE800F0B6BEC6CED6DEE6EE300604D5DD
:100DC00042463946A8B202F0B7FA641E7DD07006DA
:100DD00005D5681C4246394680B202F0ADFA641E61
:100DE00073D0B00605D5A81C4246394680B202F041
:100DF000A3FA641E69D0F00605D5E81C42463946C0
:100E000080B202F099FA641E5FD0300705D5281D24
:100E10004246394680B202F08FFA641E55D0700700
:100E200005D5681D4246394680B202F085FA641E37
:100E30004BD0B00705D5A81D4246394680B202F016
:100E40007BFA641E41D0F00705D0E81D42463946C2
:100E500080B202F071FA641E37D005F108051AF865
:100E6000016FABE74246300600D44A463946A8B285
:100E700002F062FA641E28D04246700600D44A4648
:100E8000681C394680B202F057FA641E1DD04246F3
:100E9000B00600D44A46A81C394680B202F04CFA8B
:100EA000641E12D04246F00600D44A46E81C394679
:100EB00080B202F041FA641E76D04246300700D478
:100EC0004A46281D394680B200E06DE002F034FA4F
:100ED000641E69D04246700700D44A46681D3946F0
:100EE00080B202F029FA641E5ED04246B00700D4F8
:100EF0004A46A81D394680B202F01EFA641E53D03D
:100F00004246F00700D14A46E81D394680B202F059
:100F100013FA641E48D005F108051AF8016FA1E71D
:100F2000300603D55946284602F08DF9641E3BD0A1
:100F3000700603D55946681C02F085F9641E33D04B
:100F4000B00603D55946A81C02F07DF9641E2BD0CB
:100F5000F00603D55946E81C02F075F9641E23D04B
:100F6000300703D55946281D02F06DF9641E1BD0C9
:100F7000700703D55946681D02F065F9641E13D049
:100F8000B00703D55946A81D02F05DF9641E0BD0C9
:100F9000F00703D05946E81D02F055F9641E03D04E
:100FA00008351AF8016FBBE7BDE8F09F3C710020DF
:100FB0002DE9F04706467848DDE90849007C1578B8
:100FC00090468FB2B9F1000F4FEA807078D00028B8
:100FD00003F0030005DAC0B3012843D002285DD135
:100FE0004EE020B101280BD002281FD113E0A9093F
:100FF000B0B239F81120394602F09EF9641E6FD064
:10100000C5F30111701C39F81120394680B202F085
:1010100093F9641E64D0C5F38101B01C39F8112026
:10102000394680B202F088F9641E59D005F00301F8
:10103000F01C39F81120394680B202F07DF9641EA7
:101040004ED018F8015F361DD1E7FFE715F0C00F4D
:1010500006D0A909B0B239F81120394602F06CF96E
:10106000641E3DD015F0300F08D0C5F30111701C7F
:1010700039F81120394680B202F05EF9641E2FD093
:1010800015F00C0F08D0C5F38101B01C39F8112000
:10109000394680B202F050F9641E7AD0A80708D011
:1010A00005F00301F01C39F81120394680B202F036
:1010B00043F9641E6DD018F8015F361DC6E7FFE7DF
:1010C000002803F0030005DA88B301283AD002288B
:1010D00050D143E028B101280AD002281AD110E0EB
:1010E00057E0AA093946B0B202F026F9641E50D082
:1010F000701CC5F30112394680B202F01DF9641E5E
:1011000047D0B01CC5F38102394680B202F014F911
:10111000641E3ED0F01C05F00302394680B202F096
:101120000BF9641E35D018F8015F361DD9E7FFE7CB
:1011300015F0C00F04D0AA093946B0B202F0FCF88D
:10114000641E26D015F0300F06D0701CC5F30112B6
:10115000394680B202F0F0F8641E1AD015F00C0F78
:1011600006D0B01CC5F38102394680B202F0E4F823
:10117000641E0ED0A80706D0F01C05F00302394605
:1011800080B202F0D9F8641E03D018F8015F361D52
:10119000CEE7BDE8F08700003C7100202DE9F04764
:1011A00005463E48DDE90869007C147817461FFAB9
:1011B00081F8B9F1000F4FEA80703AD000284FEA69
:1011C000C37001DAC8B123E040B92109A8B239F8E7
:1011D0001120414602F0B0F8761E5DD004F00F01F8
:1011E000681C39F81120414680B202F0A5F8761E3D
:1011F00052D0AD1C17F8014FE7E7200906D02109AE
:10120000A8B239F81120414602F096F8761E43D074
:10121000200708D004F00F01681C39F8112041465E
:1012200080B202F089F8761E36D0AD1C17F8014F57
:10123000E3E700284FEAC37001DAA8B11DE030B936
:1012400022094146A8B202F077F8761E24D0681C25
:1012500004F00F02414680B202F06EF8761E1BD0F9
:10126000AD1C17F8014FEBE7200904D022094146D5
:10127000A8B202F061F8761E0ED0200706D0681CD6
:1012800004F00F02414680B202F056F8761E03D0F9
:10129000AD1C17F8014FE7E7BDE8F0873C7100206F
:1012A0002DE9F04104462248DDF818801546007CFF
:1012B0001E4680078FB21CD4B8F1000F0AD115E08A
:1012C0002878394638F81020A0B202F035F8761E9A
:1012D000641C6D1C002EF3DCBDE8F0812A783946D1
:1012E000A0B202F029F8761E641C6D1C002EF5DCFD
:1012F000F2E7B8F1000F0BD116E0287828B138F8E2
:1013000010203946A0B202F017F8761E641C6D1C3E
:10131000002EF2DCE0E72A781AB13946A0B202F0DA
:101320000BF8761E641C6D1C002EF4DCD4E7000064
:101330003C7100202DE9F05F202000F071F8304E64
:10134000DFF8B8802F4F4FF0010B4FF00209B51CAA
:101350004FF47A7AD8B1202000F05CF820212A4896
:1013600000F0DAFBF978884245D07878002842D13D
:1013700000242021244800F0CFFBF97888423AD09D
:10138000641C5445F5DB87F801B0B8781FE04020B5
:1013900000F046F800282ED0402000F03BF8402115
:1013A000194800F0B9FB3979884224D0B878002870
:1013B00021D100244021144800F0AEFB3979884245
:1013C00019D0641C5445F5DB87F802B0787818B161
:1013D000BDE8F05F07F070BBD8F81010C8F8141023
:1013E00032780121094802F8059088F80090BDE89C
:1013F000F05F03F058BDBDE8F09F0000AC2C00206A
:10140000003100209C000020001801400014004022
:10141000FFF790BF014908607047000014040140C5
:10142000064B014600201A685B6902EA01020B4282
:1014300002D0002A00D001207047000000040140C3
:1014400030B51F4A8179036899B311460C6824EAC4
:1014500003040C604B68046823EA04034B600479BE
:1014600004EB02031C68056844EA05041C608B68F1
:10147000046823EA04038B60CB68046823EA04034E
:10148000CB604379A1F58061102B05D099180A68CB
:10149000006802430A6030BD01F581610A68036893
:1014A00042EA03020A604A68006842EA00024A60AF
:1014B00030BDFFE700791044016899430160F7E708
:1014C0000004014000B597B0002001211090CDE943
:1014D0001101139009071490CDE915010821CDE9F8
:1014E00002011021CDE90410019007900902089033
:1014F000CDE909010B900C9006900D9010A80E906C
:101500000F9001A800F016F80121002000F002F869
:1015100017B000BD4FF0204202EB800000290168A7
:1015200002D041F0010101E0014A11400160704721
:10153000FEFF0F0030B5D0E901121143D0E90323BB
:101540001A43114342690368114382691143C26916
:101550001143026A1143426A1143826A1143C26A0B
:101560001143026B11434FF0204242F8231081686F
:10157000082906D1016802EB81010B6843F04003A2
:101580000B60416BD1E9003443EA04138C68CD68E9
:10159000240244EA054423430C6943EA04534C699A
:1015A000896943EA04630B43016802EB81014B60E4
:1015B000C16AB1F5804F07D000686FF0704102EB4F
:1015C0008000C0F8041130BD816B0068D1E900349F
:1015D00043EA04138C680D69240244EA055423434A
:1015E0004C69896943EA046302EB80000B43C0F84D
:1015F000043130BD70B505460E46032000F0BCF83E
:101600000F4C2060042000F0B7F86060216801F002
:101610000F0100EB01202061052000F0ADF8A06073
:10162000062000F0A9F8E060A16801F00F0100EBCE
:10163000012060612169C0F5F0702960306070BDE3
:10164000E00000202DE9F047184E002501278146D3
:10165000C6F89C710620FEF781FD80244FF000083B
:10166000C6F898711220FEF779FDD6F81C01012802
:1016700000D12543C6F898811220FEF76FFD64085B
:10168000EED106F5CC76C6F804904FF00600FEF7D2
:1016900065FD37601220FEF761FDC6F800807760B7
:1016A0001220FEF75BFD2846BDE8F087008021424E
:1016B00070B5094C0120606020604FF00C00FEF70F
:1016C0004DFD002565600C20FEF748FD2560BDE856
:1016D00070400620FEF742BD9881214270B5094C4A
:1016E0000020606020604FF00C00FEF737FD012500
:1016F00025600C20FEF732FD6560BDE870401820C3
:10170000FEF72CBD988121422DE9F0474FF00008EB
:101710008024184D81464746012614EA090F1CD043
:10172000C5F89C610620FEF719FDC5F898611220E6
:10173000FEF714FDC5F898711220FEF70FFD64083E
:10174000EBD1C5F89C61C5F898611220FEF706FD43
:10175000D5F81C01012803D004E0C5F89C71E1E72D
:101760004FF00108C5F898711220FEF7F7FC4046CB
:10177000BDE8F0870080214210B50446FFF798FFCE
:101780007620FFF7C1FF2046FFF7BEFFFFF790FF6F
:101790007720FFF7B9FF0120FFF754FF0446FFF75A
:1017A0009DFF204610BD00002DE9F84F4FF00209C3
:1017B0008DF802904FF40070ADF8000018268DF8F7
:1017C00003606946874800F02DF94FF48060ADF85A
:1017D000000004258DF803506946824800F022F984
:1017E0008DF80290ADF800508DF8036069467D4891
:1017F00000F018F94FF00808ADF800808DF803509C
:101800006946784800F00EF903248DF802404FF441
:10181000807BADF800B048208DF803006946714820
:1018200000F000F959466F4800F07FF9E020ADF86C
:1018300000008DF802408DF803606946694800F0A9
:10184000F1F8ADF8008010278DF8037069466648FE
:1018500000F0E8F84FF0400AADF800A08DF8035012
:101860006946624800F0DEF84FF46040ADF80000D1
:101870008DF802408DF8036069465A4800F0D2F8AE
:10188000ADF800A08DF803506946584800F0CAF83A
:10189000A802ADF800008DF803706946544800F0C6
:1018A000C1F80121534800F00BF93820ADF80000D1
:1018B0008DF802408DF8036069464D4800F0B2F89B
:1018C000ADF800808DF8037069464B4800F0AAF827
:1018D0004FF001088DF80280ADF800508DF80370CC
:1018E0006946454800F09EF88DF802804FF0D00A16
:1018F000ADF800A014208DF8030069463C4800F0C4
:1019000091F82020ADF800008DF802408DF80370AA
:101910006946354800F086F84CF20370ADF80000D7
:101920008DF802408DF803606946304800F07AF87F
:101930004FF68070ADF800008DF802408DF803601E
:1019400069462D4800F06EF8ADF800808DF8024031
:101950008DF803706946234800F064F842F2B00045
:10196000ADF800008DF802408DF8036069461F480D
:1019700000F058F80A20FEF7E9FB5946194800F034
:10198000D2F80A20FEF7E2FB5946164800F0CDF8DF
:101990000121144800F0C7F80121124800F0C5F8F1
:1019A0002002ADF800008DF802408DF80350694622
:1019B0000F4800F037F87020ADF800008DF80240B5
:1019C0008DF8035069460C4800F02CF8ADF800A0E3
:1019D0008DF802908DF803506946034800F022F814
:1019E000BDE8F88F000801400010014000140140DC
:1019F000000C0140000230000018014010B58A07B9
:101A000021F003040649120F21440F238C689340F0
:101A10009C438C608B68904003438B6010BD00003A
:101A200000000140F0B5CC78002204F00F03E4067A
:101A300001D58C7823430C884FF00F0C14F0FF0F66
:101A40004FF0010E1AD005680E880EFA02F42640F7
:101A5000A6420FD196000CFA06F7BD4303FA06F62C
:101A60003543CE78282E02D0482E02D002E04461C1
:101A700000E00461521C082AE6D305600A88FF2AA8
:101A80001DD94568002202F108060EFA06F40E88F8
:101A90002640A6420FD196000CFA06F725EA070762
:101AA00003FA06F5CE783D43282E00D14461CE7866
:101AB000482E00D10461521C082AE4D34560F0BDD1
:101AC000F0B5144C002801DAE36900E06368420DC8
:101AD000120185B2C0F301579540C0F30346032FAE
:101AE00005D0C2020AD50322B240934307E023F097
:101AF0007062636823F07063636002E0AB4343F09D
:101B0000706201B12A43002801DAE261F0BD62602F
:101B1000F0BD0000000001400246002092680A4229
:101B200000D001207047416170470161704700009B
:101B30002DE9F047334C054686B0E069B4F92E80B4
:101B40002946806900F062F8002857D04168008873
:101B5000281A01EBC0054046AE7801F0DDFBDFF846
:101B6000A890824699F8000038B1E269B4F92600DD
:101B70006978927D01FB1200E08468680121CDE95B
:101B80000404CDE90216E069C27D817DCDE9001231
:101B9000037D2A78B4F92810B4F9260001F0E6F89C
:101BA000E069467D077DBE4219D9C07D4643474363
:101BB000B8F1020F13D000F057FB804600F037FB5E
:101BC00000F015FEB4F9260029784218B4F928105F
:101BD0008B19394401F004FA404600F008FE5046E3
:101BE00001F09AFB99F80000002807D1E269B4F9E6
:101BF00026006978927D01FB0200E08406B0BDE812
:101C0000F08700003C710020B801002006E0028847
:101C10008A4202D842888A4202D280680028F6D1DD
:101C20007047000070B5094D04462146E869806997
:101C3000FFF7ECFF002807D041680088201A11F850
:101C40003000E969897D484370BD00003C71002087
:101C500001200880704710B58069FFF7D7FF002882
:101C600000D0012010BD00002DE9F04100240A4DF4
:101C7000274600BF04EB840000EBC40605EBC6005A
:101C8000001D64220549FEF7D1FA641C45F8367040
:101C9000042CEFDBBDE8F08190D300203C710020E4
:101CA00002494FF0FF30086000F00EBEF401002042
:101CB00010B5040009D000F085FC204604F01EF9A0
:101CC000044600F0E5FD204610BD002010BD70B5B3
:101CD000054600F077FC2846FFF7EAFF040005D030
:101CE00000F052F82A46002100F0D6FE00F0D0FDA8
:101CF000204670BD10B5002400F064FC04F0AAF981
:101D0000002112480CE000BF30F831105B88194404
:101D100030F83230591A09B2A14200DD0C461146A2
:101D200000EBC1039A88002AEED130F8312000EB95
:101D3000C10044F6206140881044081A00B2A04255
:101D400000DD044600F0A4FD204610BDE4BF0020E5
:101D50000A4840F2722104224160816044F6206109
:101D6000C18101820021016081810548428001809A
:101D70008180044901200870704700007CD3002056
:101D8000E4BF0020E8010020002804D0024931F916
:101D90003000024908447047E4BF0020C4710020AD
:101DA0000088704710B502460C4611880020A142F9
:101DB00008D9B2F90210002904D00846FFF7E4FF61
:101DC00030F9140010BD10B50024FFF7EBFF10B17F
:101DD000FFF7DAFF0446204610BD00002DE9F34F5F
:101DE0009BB000F0EFFB7849B1F9040000287DD0EA
:101DF0000B691B9A934201D0012200E000224C693A
:101E00001C9B9C4201D0012300E000231A43EED02A
:101E10006D49497800296AD06B4DA968096803911A
:101E2000FFF7B2FF1090A86801681B980C88059412
:101E30002A69A0EB02084FF0FF30B8F1000F07DD70
:101E400001220F9200221192621EC346099207E0FE
:101E5000621E1192424404464FF0000B0F9009920B
:101E60001C9A6B69A2EB0309B9F1000F09DD01208F
:101E70000E90B1F802A00025AAF10100CDE90A9068
:101E800092E00E904D8882466D1E00200A9005EB70
:101E900009000B9088E000BF05EB090002900A984A
:101EA000854204DB0B98854201DC012000E0002024
:101EB00016900A990298884204DB0B99884201DC4B
:101EC000012000E000201790119E69E0109806EBB9
:101ED000080700EB460105982A46684301EB4000DD
:101EE00015903146039800F05BF901E066E05EE092
:101EF00018905E4506DB0998864203DC169808B107
:101F0000012000E000205F4506DB09998F4203DCD9
:101F1000179909B1012100E0002119911899A1B187
:101F200038B1A5EB0902A6EB0801039800F038F9D7
:101F300058B91598028824481830B0F90210B0F941
:101F400000002944304404F0ADFE199840B11098C7
:101F5000059900EB47020298484332F810000BE065
:101F6000194802991830B0F90220B0F90000114464
:101F7000384404F0CDFD80B215990880189868B1F6
:101F800004F032FE82B2104802991830B0F90230E3
:101F9000B0F900001944384404F084FE0F98064458
:101FA000A64293D10E98054455457FF475AF064877
:101FB0001B9901611C99416104F02EF81DB0BDE828
:101FC000F04F00F065BC00001802002010B50021A1
:101FD000084600F07DF940F6FF725042BDE810401F
:101FE00013460146AFF300802DE9FC4104460D463F
:101FF00016461F4600F0E6FA042001F08DF912495A
:102000008046486C896C044406440D440F44ADF886
:102010000040ADF80460ADF80250ADF806706846B7
:1020200003F060FD07E03B4632462946204600F0BB
:10203000D7FF03F013FD0028F5D1404601F06CF9FD
:1020400000F026FCBDE8FC813C7100202DE9FC4736
:10205000060075D000F0B6FA00F012F9394C81464E
:10206000B4F9268000F018F9218D0746C81B208599
:102070003DE000BF47F6FF71304600F0ADFC824600
:102080000146304600F08EFC0546208E00F003002D
:1020900001283ED0022838D00020E18C6A46081A78
:1020A000E084ADF80000691E0844ADF80400208DFE
:1020B000ADF80200A9F101010844ADF8060051464F
:1020C000304600F01FFCBDF8020020855146304626
:1020D00000F0B6FB064430780A281CD00D281AD030
:1020E000BDF800002844E084307818B1761C3078C0
:1020F0000028BFD1208D38442085208E20F0030099
:102100002086BDE8FC4700F0C3BB05EBD57040104E
:10211000C3E72846C1E7208E00F0030001280CD059
:1021200002280AD0A08CE08430780A28DCD1218DE6
:1021300001EB09002085D7E702E0A4F82680F3E749
:10214000BDE8FC873C7100202DE9FC4104460D46AA
:1021500016461F4600F036FA1049486C896C044454
:1021600006440D440F44ADF80040ADF80460ADF8EE
:102170000250ADF80670684603F0B4FC07E03B4639
:1021800032462946204600F02BFF03F067FC00286A
:10219000F5D100F07DFBBDE8FC8100003C71002022
:1021A000C388042B28D004DC012B08D0022B04D1D7
:1021B00013E0082B2DD0102B31D0002070478388DE
:1021C0008068534303EBD10201F00701805CC1F149
:1021D0000701C84000F001007047838880685343BE
:1021E00003EB9102805C062202EA4101C1F1060183
:1021F000C84000F00300704783888068534303EBB6
:102200005102C907805C02D000F00F00704700093E
:1022100070478388806802FB0311405C70478388A5
:102220008068534303EB410108440088704710B5B0
:1022300000F0C8F900F0F8FE00F00EFF044600F0D0
:1022400027FB204610BD000010B5044600F0BAF987
:102250000448C069416820468847044600F018FBDE
:10226000204610BD3C71002010B500F0ABF900F025
:10227000E1FE00F0F1FE044600F00AFB204610BD2E
:1022800010B500F09FF90348C069447D00F000FBE1
:10229000204610BD3C71002010B5002400F092F9DA
:1022A0000A48018E01F00C01042904D0082906D047
:1022B0000C2907D103E0C069047D641E02E0C069F7
:1022C000007D440800F0E4FA204610BD3C71002077
:1022D00070B505460C4600F075F9284604F078FC08
:1022E0000546204604F07AFC40EA050400F0D0FAE6
:1022F000204670BD70B51A492E20087000F0DAFA39
:102300001948184C006804F108056561E064284626
:1023100000F081FF1548E06515486561E061012026
:10232000207603F0E9F8A4F84000032084F8600068
:102330006FF070406063A063002000F09DFF6FF0BD
:102340007F4000F0CDFF0B482062FFF7A9FC00F0B2
:10235000A3FE044603F0EAF9FFF786FC204670BDB1
:102360009C0100203C71002000020020E89500083C
:102370000CA10008F09500082DE9F04F92461E468A
:10238000020A0B0A370A751ADDF824B04FF02A0C3E
:102390004FEA1A2EAAEB0004B1422CD14FF0C045EF
:1023A000A5F800C0DFF818C2ACF80020C0B2ACF845
:1023B0000000ACF800E00AF0FF00ACF800004FF0BD
:1023C0002B002880ACF80030C8B2ACF80000ACF8A4
:1023D0000070F0B2ACF800004FF02C00288004F13F
:1023E00001044FF0000002E0ACF800B0401CA04235
:1023F000FAD3BDE8F08F04D9A1EB06081FFA88F8DC
:1024000001E01FFA85F8C146D04650452BD14FF068
:10241000C044A4F800C0DFF8A8C1ACF80020C0B2E6
:10242000ACF80000ACF800E008F0FF00ACF80000E9
:102430004FF02B002080ACF80030C8B2ACF80000A0
:10244000ACF80070F0B2ACF800004FF02C00208027
:1024500005F101054FF0000002E0ACF800B0401CAF
:10246000A842FAD3C5E707D9A0EB0802554634467F
:1024700097B282460E4602E0A7B205460C464F458B
:102480000DD00FE06D1CADB2B44201D9641E00E066
:10249000641CA4B25A462146284600F04DFF55451B
:1024A000F0D9A6E75A462146284600F045FFB44237
:1024B00042D24F451ED9C7EB490006B24FEA490048
:1024C0000FFA80F8A9EB0700400007B20FE06D1C7F
:1024D000ADB2002E02DA06EB080002E0641CA4B2E2
:1024E000F01906B25A462146284600F025FF554508
:1024F000EDD37EE7C9EB47000FFA80F878000FFABA
:1025000080FAA7EB0900400007B212E0641CA4B2F5
:10251000B8F1000F02DA08EB0A0003E06D1CADB25F
:1025200008EB07000FFA80F85A462146284600F0CB
:1025300003FFB442EAD35CE74F451ED9C7EB49001D
:1025400006B24FEA49000FFA80F8A9EB07004000F5
:1025500007B20FE06D1CADB2002E02DA06EB0800E8
:1025600002E0641EA4B2F01906B25A46214628467B
:1025700000F0E2FE5545EDD33BE7C9EB47000FFA0B
:1025800080F878000FFA80FAA7EB0900400007B244
:1025900012E0641EA4B2B8F1000F02DA08EB0A00E0
:1025A00003E06D1CADB208EB07000FFA80F85A4645
:1025B0002146284600F0C0FEA642EAD319E70000F3
:1025C0000000086070B5244CA06820B100F06AF9E2
:1025D0006168884204D000F085F900F063F960601A
:1025E000A068401CA06001282DD11C4E002500BF12
:1025F00000F058F905EB850101EBC50156F83110E3
:10260000814204D001B36D1C042DF1DB002520684C
:10261000854218D0002815DB00EB800101EBC000DB
:1026200006EBC000001D64220D49FDF7FFFD05EB20
:10263000850000EBC50006EBC001091D64220848B7
:10264000FDF7F4FD256070BD05EB850101EBC501CB
:1026500046F83100DBE70000F401002090D30020B1
:102660003C71002010B504460448B0F95000FFF753
:102670008BFBC1692046BDE8104008473C71002033
:10268000044810B5B0F95000FFF77EFB406ABDE882
:10269000104000473C71002010B504460948B0F9CD
:1026A0005000FFF771FB018821804188618001881B
:1026B00082881144491EA1804188C0880844401E78
:1026C000E08010BD3C71002010B504460448B0F90C
:1026D0005000FFF759FB016A2046BDE8104008474B
:1026E0003C71002010B5002821D009B30AB3B1F91C
:1026F0000030B2F90040A34200DD23460380B1F967
:102700000230B2F90240A34200DD23464380B1F912
:102710000430B2F90440A34200DC23468380B1F9BF
:102720000610B2F90620914200DC1146C18010BDAE
:1027300011460A6802604968416010BD00280BD04C
:1027400003880B44038083881944818041881144A5
:102750004180C1881144C18070470000044B0ECBFA
:1027600080E80E00007A002800D0012070470000A9
:102770003071002010B508490446064808600C2254
:1027800021460648FDF772FD002802D003480ECC12
:102790000EC010BD71550008A0010020307100204E
:1027A000B0F90220B1F906309A4213DCB1F90220E7
:1027B000B0F906309A420DDCB0F90020B1F90430CE
:1027C0009A4207DCB1F90010B0F90400814201DC43
:1027D000012070470020704710B50446FFF7F2FE55
:1027E000204600F049FDBDE8104000F051B810B59A
:1027F0000446FFF7E7FE204600F072FDBDE81040FA
:1028000000F046B802494A68002A00D14860704783
:102810008C0100202DE9F041084E04460568306A1D
:102820000168284688470746306A41682846884735
:10283000284420603846BDE8F08100003C7100204B
:102840002DE9F04106460C460025064F05E0386AA2
:1028500041683046884706440544641EF7D228463E
:10286000BDE8F0813C7100202DE9F0470646089D47
:10287000884614469946B0682246641C47684B4611
:1028800041463046B8476D1EF5D1BDE8F0870000DF
:1028900003488168491E816001D100F02DB870475E
:1028A000F40100200248006890F82A0070470000F8
:1028B0003801002010B5002001F072F80149C8600D
:1028C00010BD00005401002010B5012001F068F88F
:1028D000034C6060002001F03FF8A06010BD0000D4
:1028E0005401002008B503486A460021406801F001
:1028F0007BF808BD540100200148406801F0D4B8BD
:10290000540100207CB5054624480E46006868B195
:10291000002003F0E7F806E06A463146284603F057
:10292000E1FB03F09BF80028F6D17CBD1068009015
:102930001B4C50680190BDF80010606C0144ADF86C
:102940000010BDF80220A16C0A44ADF80220BDF8C9
:1029500004201044ADF80400BDF806000844ADF8AA
:102960000600684603F0BEF80DE000BFBDF80000A9
:10297000E084BDF8020020856A463146284603F00F
:10298000B1FB03F06BF80028F0D1E08C616C401AC9
:10299000E084208DA16C401A20857CBDA801002018
:1029A0003C71002073B50D460098002478B10949A8
:1029B000C969096949B10A68294690477CBD6846DA
:1029C000FFF728FFFFF740FC04446D1EF7D52046B3
:1029D0007CBD00003C71002073B50D4600980024BA
:1029E00080B10949C969096951B14A6829469047C6
:1029F0007CBD6846FFF70EFF20B10A2802D0641C98
:102A0000AC42F6DB20467CBD3C710020B0F90030C2
:102A1000B1F90020934200DA0280B0F90230B1F936
:102A20000220934200DA4280B0F90430B1F9042068
:102A3000934200DD8280B0F90620B1F906108A4287
:102A400000DDC180704770B5B1F90030B2F90040C7
:102A5000A34200DC23460380B1F90240B2F90250E0
:102A6000AC4200DC2C464480B1F90450B2F9046059
:102A7000B54200DD35468580B1F90610B2F9062071
:102A8000914200DD1146C1809D4201DBA14201DA85
:102A9000002070BD012070BD10B502E000F8011BE0
:102AA000521E0AB18307F9D1930818D001EB0144F3
:102AB00002F0030204EB042405E004604460846037
:102AC000C46010301B1F042BF7DA01E010C05B1E3E
:102AD000002BFBD103E000BF00F8011B521E002AAF
:102AE000FAD110BD10B5830702D520F8021B521E83
:102AF000530810D001EB0144042B08DB0460446050
:102B00008460C46010301B1F042BF7DA01E010C092
:102B10005B1E002BFBD1D20700D0018010BDFEE769
:102B20002DE9F047184E002501278146C6F89C7113
:102B30000620FDF713FB80244FF00008C6F89871BB
:102B40001220FDF70BFBD6F81C01012800D125430C
:102B5000C6F898811220FDF701FB6408EED106F556
:102B6000CC76C6F804904FF00600FDF7F7FA376010
:102B70001220FDF7F3FAC6F8008077601220FDF707
:102B8000EDFA2846BDE8F0870080214210B50446E2
:102B900000F048F8382000F071F8204600F06EF898
:102BA00000F040F8392000F069F80120FFF7B8FF85
:102BB000044600F04DF8204610BD70B506460D469F
:102BC000144600F02FF8382000F058F8304600F096
:102BD00055F800F027F8392000F050F806E0002002
:102BE000FFF79EFF6D1E04F8010BEDB2012DF6D824
:102BF0000120FFF795FF2070BDE8704000F028B875
:102C000070B505460C4600F00DF8382000F036F897
:102C1000284600F033F8204600F030F8BDE8704058
:102C200000F016B870B5094C0120606020604FF0CC
:102C30000C00FDF793FA002565600C20FDF78EFA75
:102C40002560BDE870400620FDF788BA98812142D2
:102C500070B5094C0020606020604FF00C00FDF75B
:102C60007DFA012525600C20FDF778FA6560BDE846
:102C700070401820FDF772BA988121422DE9F04783
:102C80004FF000088024184D81464746012614EA7B
:102C9000090F1CD0C5F89C610620FDF75FFAC5F846
:102CA00098611220FDF75AFAC5F898711220FDF7C5
:102CB00055FA6408EBD1C5F89C61C5F898611220FB
:102CC000FDF74CFAD5F81C01012803D004E0C5F843
:102CD0009C71E1E74FF00108C5F898711220FDF7EB
:102CE0003DFA4046BDE8F0870080214270B54FF0C4
:102CF000C0442A204FF448712080114A00231380D9
:102D00001380104E7068050A1580C0B210802B2009
:102D10002080138013807069030A1380C0B2108072
:102D20002C2020804FF478434FF4F07404E000200E
:102D30001380401CA042FBD3491EF8D270BD000096
:102D400000000860680100200149C96C0968084753
:102D50003C710020C0F3C401C0F38522C0F3C4401D
:102D600000EB421000EBC120704700002DE9F04F4E
:102D70000546794889B01746D0F800C0DDF8509074
:102D8000169C1E464FF00008BCF1000F0CD017989F
:102D9000159ACDE90440CDE90292DDE91202CDE9B0
:102DA0000002DCF8004076E0DDE912038A19521EC9
:102DB00005EB070C1843ACF1010C012806D0C9F152
:102DC00008000490002001910590C1E0DFF88C819B
:102DD000B8F90A30581A002806DD361A002E5EDDD2
:102DE0001946159B00FB0344B8F90E00101A002881
:102DF00002DD361A002E52DDB8F90C00ACEB0000F3
:102E0000002800DD3F1AB8F908200020AA4235DD6D
:102E1000501B3F1A4A46B9F1040F21D005DC012AA4
:102E20000ED0B9F1020F29D112E04C4BB3F90830A2
:102E30005B1B2B44082A1BD0B9F1100F1ED119E0DF
:102E400020F0070204EBE004154400F0070015E051
:102E500020F0030204EBA004154400F003000DE091
:102E600020F0010204EB6004154400F0010005E0CD
:102E7000044401E004EB40041D460020002F0EDD59
:102E8000179A159BCDF80090CDE90302CDE90134E6
:102E9000D8F84C00C46833463A462846A04709B0E3
:102EA000BDE8F08F13990198084407902B49401E04
:102EB0000390B1F90A20824242DC0846B0F90E10B4
:102EC000019881423CDB4FF0000BDA4600950294FA
:102ED00034E000BFBBF1000F05D102984FF0080BA2
:102EE00010F8018B02900499ABEB090B38FA01F052
:102EF00008FA09F101F0FF0803D11849097C890794
:102F000016D4164949880691179921B131F8101045
:102F10001248418001E01149488012990098039BB2
:102F20004218521E019900F05BF80C49069848803F
:102F3000009912980AF1010A08440090BA45C9DBC9
:102F40000598401C05900798019015980444059831
:102F5000B042A7DBA3E70000A80100203C710020DD
:102F60000D4B30B4B3F90A408C4213DCB3F90E4078
:102F70008C420FDBB3F90840844200DD2046B3F9F0
:102F80000C40944200DA2246824203DBDB6C1B6970
:102F900030BC184730BC70473C7100200F4A30B439
:102FA000B2F90A308B4217DCB2F90E308B4213DBD8
:102FB000B2F9083083420FDCB2F90C3083420BDBEC
:102FC000137CDC071346DB6C02D09A6A30BC1047D6
:102FD00052885B6A30BC184730BC70473C71002097
:102FE00030B4104CB4F90850854200DD2846B4F9DD
:102FF0000C50954200DA2A46824210DBB4F90A509E
:103000008D4200DD2946B4F90E509D4200DA2B4670
:103010008B4204DBE46CA469A44630BC604730BC3E
:10302000704700003C710020014800887047000094
:103030003C71002001484088704700003C7100202E
:103040004FF6FF70704700B589B280B206F048F9BC
:103050005DF804EB00F006B90149C96C49680847FE
:103060003C7100201F2300F01F01C0F3451210B572
:10307000C0F3C420C0EB0020C2EB02223F24B0FB0F
:10308000F3F0B2FBF4F2C1EB0121B1FBF3F100EB81
:10309000022000EB014010BD10B500F019F900F05E
:1030A000C6F8044600F011F8042000F035F940F6A7
:1030B000FF72002113460846FFF792FF002000F040
:1030C0002BF900F0B9F8204610BD7047FFF742BE5B
:1030D0002DE9FF4F83B00D4612A9DDE91007B1E8D5
:1030E000100C91461E46042830D005DC012809D07A
:1030F000022818D1002025E0082839D0102812D144
:10310000002051E000200BE0CDE9009B08EB050119
:10311000534622460398FDF71FFE3C4408F1010088
:103120008046B042F0DB07B0BDE8F08FCDE9009BF0
:1031300008EB0501534622460398FDF739FF3C444E
:1031400008F101008046B042F0DBECE700200BE024
:10315000CDE9009B08EB0501534622460398FEF794
:103160001DF83C4408F101008046B042F0DBDAE78C
:1031700000200BE008EB05014B462246CDF800B0DD
:103180000398FEF78DF83C4408F101008046B042F8
:10319000F0DBC8E708EB05014B4622460398FDF734
:1031A000B5FD3C4408F101008046B042F2DBBAE7CD
:1031B00008B5054B92B280B25B8800938BB219467A
:1031C000FFF7DAF808BD00003C71002008B5054B98
:1031D00089B25B88009393B282B21046FFF7CCF8B5
:1031E00008BD00003C7100202DE9F04106460C4668
:1031F00017461D4605E03A4621463046FFF7D8FF00
:10320000641CAC42F7DDBDE8F08100207047FFF799
:1032100017BFFFF718BF00210180418040F21F3126
:10322000818040F2DF11C1807047FFF71BBF10B5EE
:1032300000F0ECF8002010BD7047704792B289B2E0
:1032400080B200F079B870B504460D46FFF7FBFE7A
:1032500082B24FF6FF70821AA9B2A0B2BDE87040E8
:1032600000F06AB84FF0C0412E2008800148008865
:103270007047000000000860064910B58A6B824262
:1032800006D08863FFF760FDBDE8104000F004B889
:1032900010BD00003C71002010B50446002003F072
:1032A00011FC024921F8104010BD00003C710020C3
:1032B0001CB504460548C06C016A68468847034847
:1032C0006A4621460830FFF7BEFB1CBD3C7100205A
:1032D0000248C06C016A0148083008473C71002070
:1032E000064910B54A6B824206D04863FFF72CFDB1
:1032F000BDE8104000F004B810BD00003C71002093
:1033000010B50446012003F0DDFB024921F810400E
:1033100010BD00003C710020064910B50A7C82EA0D
:1033200000035B0703D50B884C880C804B80087426
:10333000104610BD3C71002070B54FF0C0442A23E8
:1033400023800D4B050A1D80C0B218800B4E70689B
:10335000050A1D80C0B218802B202080080A188022
:10336000C8B218807069010A1980C0B218802C2078
:1033700020801A8070BD00000000086068010020F5
:1033800070B506000C466FF070450BD0FFF71AF9C8
:103390003046FEF7F9FC042C02D800EB8400456BA4
:1033A000FFF776FA284670BD70B506000C466FF040
:1033B00070450BD0FFF706F93046FEF7E5FC042C0C
:1033C00002D800EB8400456CFFF762FA284670BD16
:1033D0002DE9F04105460E4617461C46DDF81880DB
:1033E000FFF7F0F823463A463146284603F0ADFB96
:1033F00008B140F82480BDE8F041FFF749BA2E300B
:10340000FEF7CEBC2A30FEF7CBBC0000F0B54FF083
:10341000C042E22010804348232101800221018024
:1034200004210180E0231380012606800024641C0F
:103430000A2CFCD31380032707800024641C322C41
:10344000FCD316800024641C322CFCD3E6241480A8
:103450000180932101800380B0211180002303802B
:10346000038031494D68C5F307240480ECB2048021
:103470004D69C5F307240480ECB204800380B424B2
:1034800014808D68C5F307240480ECB20480CD68F5
:10349000C5F307240480ECB204800C7804800D6925
:1034A000C5F307240480ECB204800380B6241480A2
:1034B0008D69C5F307240480ECB20480CD69C5F39F
:1034C00007240480ECB204804C7804800C6AC4F3B6
:1034D00007210180E1B20180BA211180052101801C
:1034E000B821118007210180068036211180082132
:1034F0000180F021118007800024641C322CFCD351
:1035000029241480BE24148006240480802404808E
:103510000680018003800380D02111800D2101806D
:10352000F0BD000000000860680100203EB50121E8
:10353000102000F039FF40F2E730ADF804005920C8
:10354000ADF8000000200B4CADF80600ADF802000D
:103550006946204601F0CAFD0021204601F0A2FD87
:1035600001221146204601F055FD0121204601F0BF
:103570009AFC3EBD0010004002460121014801F0C6
:1035800049BD00000010004010B52A20FFF7FEFAE8
:1035900040F00101BDE810402A20FFF731BB10B513
:1035A00000F00CF800212A20FFF72AFB00210E2052
:1035B000FFF726FBBDE81040FFF7E6BF10B50D2072
:1035C000FFF7E4FA2A20FFF7E1FA20F00101BDE855
:1035D00010402A20FFF714BBFEB56A4602210520E1
:1035E000FFF7EBFA01AA02210120FFF7E6FA02AA8F
:1035F00002210320FFF7E1FABDF800003D4D40BA7B
:1036000004B22C80BDF8040040BA6880BDF8080000
:1036100040BAA8803848816801293AD037494FF428
:103620008066D1E90002821AB24231D2C0F30900A9
:1036300001EB400004810868401C0860032120461B
:1036400005F092FB2E4AD2E90010081AB0421FD2B0
:10365000C1F3090102EB4101B5F9020008811168CB
:10366000491C1160012105F07FFB264AD2E90010B8
:10367000081AB0420CD2C1F3090102EB4101B5F9BD
:10368000040008811168491C1160022105F06CFBDF
:10369000FEBD1D4E1D4FE968A1B10069FDF7EFF8B1
:1036A00032463B46FCF76EFF05460E4604F40040EA
:1036B000C4F38C010843FDF772F82A463346FDF740
:1036C000F5F8FEBDC068FDF7DAF832463B46FCF778
:1036D00059FF06460F4604F40040C4F38C0108432A
:1036E000FDF75DF83B463246FDF7E0F84FF001008C
:1036F000E860FEBDCC00002084430020984C0020F0
:10370000C0540020E85C0020CDCCCCCCCCCCEC3F2D
:1037100010B596B0202217490DA8FCF787FD154972
:10372000342220316846FCF781FD134800240470E0
:103730001248047005F0BCFBFEF7DCFD1048048065
:1037400010480480104804801048046005F082FA94
:1037500005F0ACFA582340F226320D490DA004F0D2
:103760007BFE04F001FF05F019F8044803F022FF86
:1037700016B010BD9094000814000020704C00207A
:10378000080000200C0000200A000020100000208B
:103790000C4400207370656564742E6C7400000026
:1037A000FEE77047F8B54FF4806000F047F800245A
:1037B0000A4D0126285D8DF80000281941788DF802
:1037C000011080788DF802008DF80360684600F0E3
:1037D00007F8E41C032CEDD3F8BD0000E2940008C8
:1037E00070B50F24C27801784FF0E0230126E2B1D2
:1037F000D3F80C2D194402F4E062C2F5E062120A1B
:10380000C2F10405D4404278AA408578254015438A
:103810002A0181F80024007800F01F018E40400941
:1038200003EB8000C0F8006170BD01F01F0086400E
:10383000480903EB8000C0F8806170BD024908436D
:1038400002490860704700000000FA050CED00E036
:1038500000B585B000F050F8224A00211163917044
:10386000D1701172D171D160D1619161516151708A
:103870009171084602F134031954401CC0B2082863
:10388000FAD3117151719162116200F021FC00F0C4
:10389000F3FB15480DF1040C032300228021ACE852
:1038A0000F004FF6FF73009300F5FE723F230021D7
:1038B0000E4800F059F90E480DF1040C03230022C4
:1038C0008021ACE80F004FF6FE73009300F5FE7206
:1038D0003E230021074800F047F905B05DF804EBEE
:1038E00000F00BB818010020006800209542000885
:1038F00000660020B14200087047704770B5144C54
:10390000E079012822D1FCF73FFCA178054621B1DE
:10391000491E11F0FF00A07013D1E07888B900F0C3
:1039200031FC0C49607951F82010A1622279904253
:1039300007D0086B401C0863E068401CE060FCF79F
:103940003FFC2846BDE87040FCF722BC70BD00007B
:1039500018010020006A002070B505460D48007867
:1039600008B1002070BDFCF70FFC0B490C680CB1CE
:1039700062680A60FCF70CFC4CB10120207000204A
:10398000208106A065606061204600F06BFB204648
:1039900070BD00001A010020280100203F00000037
:1039A00070B505460D48007808B1002070BDFCF7E1
:1039B000EBFB0B490C680CB162680A60FCF7E8FB92
:1039C0004CB10320207025810020606005A060615B
:1039D000204600F047FB204670BD00001A01002081
:1039E000280100203F0000002DE9F047050089462E
:1039F000144604D02878032803D001200AE00420CC
:103A000008E02648007808B1022003E02448007846
:103A100018B10D201070BDE8F087FCF7B5FB064625
:103A20002889002730B1401E28813046FCF7B0FBC2
:103A30002770F0E7DFF86C80D8F8000010F8281F36
:103A400041F001010170477040F8049C284600F0E5
:103A5000DFFA3046FCF79CFB00F070FBFCF794FBB0
:103A60000646D8F8000090F8291031B1022906D096
:103A7000294600F0BBFA0A2002E0277001E00E2080
:103A80002070D8F8000000F11C000773477307602E
:103A90003046BDE8F047FCF77BBB00001A01002070
:103AA0001B0100203801002070B5040004D02078EC
:103AB000032803D0012070BD042070BDFCF764FB17
:103AC0000546A07A58B1002301221946204600F08D
:103AD00055FA2846FCF75CFB00F030FB09E0208932
:103AE0004FF6FF71884206D2401C20812846FCF721
:103AF0004FFB002070BD2846FCF74AFB332070BD09
:103B000010B5094CE07900280CD100F03BFB60793E
:103B10000649207151F82000A0622062BDE81040E3
:103B2000FCF739BB10BD000018010020006A00201E
:103B300010B5022000F040F9FCF726FB084C0021EC
:103B4000E161FCF725FB642000F036F9FCF71CFB73
:103B5000E169616101216170BDE81040FCF718BBAB
:103B600018010020704700002DE9FF4F83B0804608
:103B7000DDE910B6149F894692461C463F2B03D9B7
:103B80002A2007B0BDE8F08FFCF7FEFA1D4909783E
:103B900019B1FCF7FDFA3C20F3E71B4D55F8241052
:103BA00019B1FCF7F5FA2820EBE7012145F82410BC
:103BB000FCF7EEFA3A463046129900F0C1FB3B465C
:103BC00052464946404600F06BF8DDE912128DE896
:103BD000860001465B463246204600F0E3FA0600C6
:103BE00008D0FCF7D1FA002145F82410FCF7D0FAF0
:103BF0003046C6E7054800780128F9D100F09EFA62
:103C0000F6E700001A010020006A00201F010020D2
:103C100070477047704700002DE9F04104460E469A
:103C20003F2804D9FF2C02D02A20BDE8F08146B1FC
:103C3000002030607060FCF7A7FA0146FF2C02D02C
:103C400005E00920F1E71448006890F82A4013487D
:103C500050F8240058B1012809D0028AD2070BD0AD
:103C6000D0E9025700240846FCF792FA0AE0084619
:103C7000FCF78EFA4320D8E70846FCF789FA45207E
:103C8000D3E7641C01CD0028FBD0A0003060381BB6
:103C9000800070600020C8E738010020006A002022
:103CA0004FF080731360131FA2F1240218606FF0AD
:103CB0000100D0614FF0123090614FF0033050613D
:103CC0004FF0023010614FF00130C2E902104FF0A6
:103CD000113050604FF0103042F804094FF00930B5
:103CE0001060A2F110004FF00831C1604FF00731B1
:103CF00081604FF0063141604FF0053140F8041902
:103D00004FF004310160704770B504463F2804D07D
:103D100005D3FF2C03D02A2070BD472070BDFCF7CF
:103D200033FA01461F48FF2C006805D090F82A009E
:103D3000A04204D1012503E090F82A40FAE70025CB
:103D4000194850F8240068B1012810D090F82C20B0
:103D5000164C90F82D60A35CF643F6B23340A354A2
:103D60000AD010E00846FCF713FA482070BD084658
:103D7000FCF70EFA432070BD0D4B90F82E201C78F6
:103D800024EA02021A7010F8282F42F0080202708A
:103D90000846FCF7FDF9012D01D100F0CFF9002014
:103DA00070BD000038010020006A00204C01002096
:103DB0001E0100207047000070B5044614480078CA
:103DC000002824D113480078002820D1002C1ED0D0
:103DD000FCF7DAF903461048104D016891F82C20E1
:103DE00091F82D60A85CF643F6B23040A85406D195
:103DF0000B4A91F82E00157825EA0000107018463D
:103E00004C62FCF7C5F9BDE8704000F097B970BD91
:103E10001A0100201B010020380100204C01002065
:103E20001E01002070B51A4C24780CB1552070BDCD
:103E3000184C24780CB1322070BD00B919B13B295F
:103E400002D9512070BD1AB13B2A02D9522070BD4F
:103E50002BB14FF47A74A34203D3532070BD542086
:103E600070BD4FF47A756B43B3FBF4F34FF46164A8
:103E70006043C1EB011100EB8100104400EB4001F5
:103E8000C1EBC01003EBC000FFF796FF002070BD30
:103E90001A0100201B0100202DE9F04100F050F82C
:103EA000FCF772F9254D296B491C2963FCF770F961
:103EB000E879012840D1687A01264FF0000828B13E
:103EC000012839D0022803D085F80980EC6A2FE058
:103ED0006E72FBE7FCF758F9616A31B3491E616203
:103EE00023D194F8281011F0370F06D001F0C80143
:103EF00084F8281084F8296001E084F8298094F877
:103F00002810090711D404F12C04AA79A17841EAF8
:103F10000201A971094A217802F134026778535CE1
:103F2000A4F12C0443EA070353546469FCF730F905
:103F300094F82A003F28CDD1BDE8F0811801002077
:103F4000704700B585B0684600F088FA019805B062
:103F500000BD10B5FFF7F5FF4FF47A71B0FBF1F13A
:103F60004FF0E020491E4161016941F00501016106
:103F7000016941F00201016110BD0000F0B50F467A
:103F80000646817A1648445C06EB0401C97A405C17
:103F90004FF0000100EBC400C5B2124850F82500F4
:103FA00000F12000C0E90071017A21EA02010172EA
:103FB0004372A0F1200009070CD40B4990F82E2081
:103FC0008B791A438A7101F1340290F82D30115D1A
:103FD00019431155314600F009F82846F0BD00009C
:103FE000E5940008006A00201801002010B590F840
:103FF0002C2090F82D408B18E443DA7AE4B222406A
:10400000DA7204D18A7A90F82E0082438A7210BD47
:1040100030B5134B00F10B02196A41F81C0F0C7CF0
:10402000497CA55C0D43A554196A827A01F12C01E3
:104030008C7842EA04028272087803F134044D78E5
:10404000225C6FEA0505EDB22A40A1F12C01225451
:1040500005D191F82E00997921EA0000987130BDC0
:10406000180100200022827211464318491CC9B26F
:10407000DA720829F9D3704710B5F021114800F021
:1040800053F800200F4A0346411C0C4600EB400049
:1040900089B202EBC00001EB410102EBC1010370E8
:1040A000416009A14161A0B20928EDD300EB4000B5
:1040B00002EBC00004A10370436041610348026148
:1040C00010BD0000106500203F0000001801002016
:1040D00000B54FF4C661114800F026F84FF4807126
:1040E0000F4800F021F80D4B0020411C0A46C9B2D0
:1040F00000EBC00003EBC00001EBC10103EBC10109
:104100004161D0B21528F0D300EBC00003EBC00032
:104110000021416103484362C16200BD006B002081
:10412000006A002018010020002203E0491E00F868
:10413000012B89B20029F9D17047000070B5FCF756
:1041400023F80E4C0546A07898B9E07888B900F0BD
:1041500019F80B48627950F82210A1622079824246
:1041600007D0086B401C0863E068401CE060FCF767
:1041700022F82846BDE87040FCF70AB81801002074
:10418000006A0020064A054902F134039079085C70
:104190001B5CC95C01EBC00050717047E5940008DE
:1041A000180100202DE9FF5F0546DDE90EBA0E4635
:1041B00090469946FBF7E8FF344F7C6AECB304F174
:1041C000100461687962FBF7E3FF44F8106CA57690
:1041D0000026267666766661A4F1080044F80CACE9
:1041E000A0E8000910982080A4F80290E90821773F
:1041F00005F00700012202FA01F1E0768240A17782
:104200006277E66026612662A6626662E6622663DF
:10421000A4F11004304604EB8001401C4E6410F001
:10422000FF00F8D02046FFF79DFC2046FFF7F0FC8A
:10423000FBF7AAFF0146164800E022E040F82540BF
:10424000F86AC4E9050600B18461FC6204F12C043B
:10425000BA79A0780D4B40EA0200B871207803F1DA
:10426000340364781A5C42EA04021A54387A00F182
:10427000010038720846FBF78BFF002004B0BDE850
:10428000F09FFBF785FF4220F8E7000018010020AF
:10429000006A0020054CFBF777FFE169491CE161EA
:1042A000FBF776FFFFF7B5FCF5E7000018010020EB
:1042B000144C02E0C820FFF77FFD60780028F9D099
:1042C000642160690025B0FBF1F0606118B92570C8
:1042D000FF20FFF719FDFBF757FFE169C4E9061559
:1042E000FBF756FFD4E90510B0FBF1F0C0F1640014
:1042F0002070FFF78FFC00F007F86420FFF75CFDEB
:10430000E9E70000180100207CB50C4D0024694647
:104310002046FFF781FC58B955F8241041B1012916
:1043200006D0D1E9020200EB8200C863019808645C
:10433000641CE4B23F2CEAD97CBD0000006A002076
:10434000D30707D0920705D50022002902D004C068
:10435000491EFAE770470000044910B50020487074
:10436000FFF70AF9BDE8104005F07CB818000020FE
:10437000014908627047000000000E42034A51687C
:1043800021F4404101435160704700000010024099
:10439000044A0029516901D0014300E08143516181
:1043A0007047000000100240044A0029D16901D082
:1043B000014300E08143D1617047000000100240DA
:1043C000044A0029116901D0014300E081431161D1
:1043D0007047000000100240044A0029916901D092
:1043E000014300E0814391617047000000100240EA
:1043F000044A0029D16801D0014300E08143D16023
:10440000704700000010024001490860704700003A
:104410004004424210B501217D20FFF7DDFF01215C
:104420008C032046FFF7D8FF01214804FFF7BCFFAB
:1044300001210803FFF7D0FF01212046FFF7B4FF59
:104440000121C803FFF7B0FF01210802FFF7A0FF19
:104450000121BDE810400420FFF7A6BF214A10B596
:104460005168214B11F00C0103D0042901D0082917
:1044700001D0036012E05168536801F470114FF0ED
:10448000020413F4803F04EB914102D053689B0374
:1044900001D5164B00E0144B594301605168144B91
:1044A00001F0F00109095C5C0168E1404160546879
:1044B00004F4E064240A1C5D21FA04F48460546866
:1044C00004F46054E40A1B5DD940C1605268084B93
:1044D00002F44042920B1B1F9A5CB1FBF2F10161A6
:1044E00010BD00000010024000127A0000093D00DB
:1044F00005010020034600205909094A01290AD074
:1045000002290AD0516A03F01F02012393400B4293
:1045100000D0012070471168F5E7116AF3E7000049
:1045200000100240064900220A7001F820290128E3
:1045300002D0042802D1052081F820007047000035
:104540002010024001490860704700003C044242CC
:1045500002490A6A02430A627047000000100240E2
:1045600010B50420FCF77EFB4AF2A154A0420BD008
:1045700000F016F800F06EF800F06CF82146BDE887
:1045800010400420FCF774BB00F06CF800F062F8F7
:104590000121084600F040F8BDE8104000F05AB88C
:1045A00010B501214FF0C050FFF7FEFE0120FFF7CC
:1045B000DFFEFCF74DFB0120FFF7B4FF4120FFF7C2
:1045C00099FF0028FAD04FF48070FFF7C1FF012057
:1045D000FFF7B8FF00F046F800F03CF8012108466C
:1045E00000F01AF800F036F847F6FF7000F022F8F5
:1045F000BDE8104000F02EB80248018841F01001DB
:1046000001807047042800400248018821F0100111
:104610000180704704280040054A0029B2F80018BC
:1046200001D0014300E08143A2F800187047000068
:104630000020004000B50246FFF7DEFF0448C2F349
:104640000341018082805DF804EBFFF7DDBF0000CD
:10465000082800400248B0F804188906FBD57047C6
:10466000002000400548B0F8041821F00801A0F827
:104670000418B0F804180907FBD570470020004063
:104680000349012008604FF0FF0000F069B8000006
:10469000AC01224270B505464FF6FF7401E0641E7E
:1046A000A4B2FF2000F05CF8A84202D0002CF6D1A2
:1046B00002E00CB1002070BDFF2070BD2DE9F0417B
:1046C0000646184815460078062800D049024FF4DF
:1046D0000077012D4FF0010219D0122000F090F860
:1046E0003946304600F020F86D1E044606F5007687
:1046F00015F0FF0501D0002CF2D0012200210C2082
:1047000000F07EF8FFF7BCFF2046BDE8F0811120E5
:1047100000F076F80400F5D13946304600F004F890
:104720000446EFE70001002070B504460D46FE2068
:10473000FFF7B0FF28B1012070BD00F011F804F8B8
:10474000010B2800A5F10105ADB24FF0FF00F4D137
:1047500000F006F8FF2000F003F8002070BD000014
:1047600070B50B4C05460221204600F08FF9002859
:10477000F9D02946204600F092F90121204600F0A8
:1047800085F90028F9D0204600F087F9C0B270BD45
:10479000003C0040054910B50020086000F061F8B9
:1047A000002802D0FFF76CFF012010BDAC012242AF
:1047B00070B505460C4600F054F808B1012070BDF4
:1047C0002046FFF7CDFFFD2C18D000244FF40076D3
:1047D000285DFFF7C5FF641CA4B2B442F8D3FF20E4
:1047E000FFF7BEFFFF20FFF7BBFFFF20FFF7B8FF7B
:1047F00000F01F00052801D0022070BD002070BD10
:1048000070B505460C461646FFF73AFFFFF7C2FFA4
:1048100008B1FF2070BD45F04000FFF7A1FF200E5A
:10482000FFF79EFFC4F30740FFF79AFFC4F307208A
:10483000FFF796FFE0B2FFF793FF3046FFF790FFD8
:104840000C2D02D1FF20FFF78BFF1F24FF20FFF765
:1048500087FF0106DED52100A4F10104E4B2F5D101
:1048600070BD70B500246FF07F45FF20FFF778FF23
:10487000FF2804D0641CAC42F7D3012070BD002097
:1048800070BD000070B506461D4815460C46007800
:10489000062800D04C02012D13D0012809D0012296
:1048A00000213720FFF7ACFF012229461720FFF730
:1048B000A7FF012221461920FFF7A2FF04000AD01A
:1048C0001AE0012221461820FFF79AFF040013D1B5
:1048D000FE2130460DE0FC213046FFF769FF6D1EDA
:1048E00006F5007615F0FF0501D00028F3D0FD2174
:1048F0000020FFF75DFF0446FFF7C2FE204670BDB3
:10490000000100200029018802D041F0400101E0AF
:1049100021F040010180704730B585B00024ADF82A
:1049200000404FF48270ADF80200ADF808404FF43B
:104930000070ADF80A002820ADF80C000720134DD8
:10494000ADF80440ADF81000ADF80640ADF80E40EB
:104950006946284600F0A5F801212846FFF7D2FF56
:104960000B4D6946284600F09CF801212846FFF7C8
:10497000C9FFADF80C40074C6946204600F091F89D
:1049800001212046FFF7BEFF05B030BD00300140D9
:1049900000380040003C004070B586B0012108207E
:1049A000FFF71AFD01218803FFF7FEFC4FF460407A
:1049B000ADF8140001258DF8165018201C4E8DF806
:1049C000170005A93046FDF72DF82C03ADF814406B
:1049D0008DF8165010258DF8175005A93046FDF7B3
:1049E00021F821463046FDF7A0F80020ADF8000080
:1049F0004FF48271ADF80210ADF80800ADF8040074
:104A0000E110ADF80C50ADF80600ADF80E0007202F
:104A1000084CADF80A10ADF810006946204600F0C9
:104A200040F801212046FFF76DFF06B070BD000081
:104A3000000C014000380040114910B588420AD1ED
:104A4000841401212046FFF7D3FC2046BDE8104026
:104A50000021FFF7CDBC0B49884202D1012104148B
:104A600004E0094988420AD10121C4132046FFF716
:104A7000A7FC2046BDE810400021FFF7A1BC10BDF7
:104A80000030014000380040003C00400246002059
:104A900012890A4200D001207047808970478181C5
:104AA000704730B502884C8802F441530A88CD889B
:104AB00022438C882C4322430C8922434C89224375
:104AC0008C892243CC8922431A430280828B22F4B0
:104AD00000628283098A018230BD7047224900202A
:104AE0000A6842F480320A604FF4A0630A6800F159
:104AF000010012F4003F01D19842F7D10868800309
:104B000030D51A48026842F010020260026822F0B2
:104B100003020260026842F00202026048684860D4
:104B200048684860486840F480604860486820F4FD
:104B30007C104860486840F4E8104860086840F01D
:104B40008070086008688001FCD5486820F0030088
:104B50004860486840F0020048604868C0F381003F
:104B60000228FAD1704700000010024000200240E5
:104B700010B5FBF709FB064A1178491C1170FBF7C9
:104B800007FBFFF789F9BDE81040FEF7B7BE00004C
:104B90001A0100200F4810B5016841F001010160C1
:104BA00041680D4A1140416001680C4A11400160A2
:104BB000016821F480210160416821F4FE01416017
:104BC0004FF41F018160FFF789FF05494FF0006036
:104BD000086010BD001002400000FFF8FFFFF6FE65
:104BE00008ED00E030B5048C24F001040484058B4A
:104BF000048C1B0542EA134325F0F3050E4A2B43B0
:104C000090420ED00D4A90420BD0B0F1804F08D0A8
:104C10000B4A904205D00B4A904202D00A4A904279
:104C200002D124F0020201E024F00A020A4342F019
:104C300001010383018430BD002C01400034014098
:104C40000004004000080040000C004070B5048CD7
:104C500024F010040484068B048C26F473461B078E
:104C600046EA1343120643EA12420D05104B2D0C7F
:104C700098420ED00F4B98420BD0B0F1804F08D025
:104C80000D4B984205D00D4B984202D00C4B9842E8
:104C900005D124F02001294341F0100104E024F063
:104CA000A0030B4343F010010283018470BD000098
:104CB000002C014000340140000400400008004086
:104CC000000C0040AFF300802DE9F04102214E07B7
:104CD000304600F0FFF8474D012834D1012130461D
:104CE00000F0F8F801282ED0DFF80C81002440F203
:104CF000DC5701214046FCF70FFF08B1022132E0EA
:104D0000641CBC42F5D3A868002830460AD000F0E5
:104D1000DFF8E96900EB0141A961A86881420AD97D
:104D2000081A0AE000F0D4F8E96900EB0140A86035
:104D30000020E860E2E7C0430844286103F0FEFA7F
:104D400002F07CFBDAE70121304600F0C3F80128CD
:104D50000ED10221304600F0BDF8012808D0E869E4
:104D6000401C0121E8613046BDE8F04100F098B8F0
:104D70000221304600F0AEF8012838D1012130463A
:104D800000F0A8F8012832D1A8694FF6F0718842E6
:104D9000304603D900F09CF8E96903E000F098F888
:104DA000E969491C00EB0140A861A8680028304669
:104DB0000AD000F08DF8E96900EB0141A961A8680B
:104DC000814208D9081A08E000F082F8E96900EB8E
:104DD0000140A86006E0C0430844286103F0AEFA31
:104DE00002F02CFB0121304600F05AF886E7BDE8BE
:104DF000F08100009C00002000080140704700F096
:104E000001B800000D4810B5017881B10C4C406A22
:104E1000D4E90721521E114050F821100948406979
:104E2000FBF731FA04F0BAF9206A401C2062BDE8B1
:104E300010400121044800F033B800009C0000201D
:104E4000704C00200C440020000C004010B50121E3
:104E5000034800F025F8BDE81040FEF7BDBB000098
:104E600000100040AFF3008010B50121094800F0A8
:104E700017F809480168C1F3080100EB8100C16817
:104E800006484069FBF74CFD03D2BDE8104003F033
:104E900013BE10BD0014004064440020AC2C002060
:104EA000C943018270470029018802D041F0010105
:104EB00001E021F0010101807047002930F8441F12
:104EC00002D041F4004101E0C1F30E0101807047BE
:104ED000808E704702460020138A92890B4202EAB4
:104EE000010202D0002A00D0012070472DE9F05FB6
:104EF0000D4604460888424E424FDFF80C81DFF829
:104F00000C914988AA882B894FF0804A28B104283F
:104F10000CD00828934612D040E02046FFF762FEEE
:104F2000E9882046BDE8F05F00F0BEB82046FFF7F4
:104F30008DFEE9882046BDE8F05F00F0BDB8208C0A
:104F400020F480702084A28B208C1B0522F0F302B9
:104F50004BEA13434FEA016C13434FEA1C4EB44231
:104F60000AD0BC4208D0544506D0444504D04C4534
:104F700002D0274A944204D120F4007040EA0E0087
:104F800002E020F42060084340F48070A383208472
:104F9000E9882046BDE8F05F00F097B8208C20F447
:104FA00080502084B4F81CC0208C0A074FEA124EAF
:104FB0002CF4734C4FEA0B621B074CEA124242EA94
:104FC0001343B4420AD0BC4208D0544506D04445ED
:104FD00004D04C4502D00E4A944204D120F4005033
:104FE00040EA0E0002E020F40240084340F4805002
:104FF000A3832084E9882046BDE8F05F00F06DB807
:10500000002C014000340140000400400008004032
:10501000000C0040002A828901D00A4300E08A4344
:105020008281704730B5028C22F001020284028C2A
:105030008388048B22F0020224F073050C882C4331
:105040000D8915434A882A43114DA8420BD0114DB2
:10505000A84208D0104DA84205D0104DA84202D059
:105060000F4DA8420DD122F008054A8923F4407360
:105070002A4322F004058A882A438D891D43CB895F
:105080002B4383800483C9888186028430BD00005D
:10509000002C014000340140004001400044014028
:1050A0000048014081847047028B22F00C02028389
:1050B000028B0A4302837047028B22F44062028310
:1050C000028B42EA012202837047828B22F00C029B
:1050D0008283828B0A4382837047828B22F44062F0
:1050E0008283828B42EA01228283704730B5028834
:1050F0001B4C1C4DA0420DD0A8420BD0B0F1804FEC
:1051000008D0194B984205D0184B984202D0184B42
:10511000984203D122F070034A881A43154B9842F3
:1051200006D0154B984203D022F44073CA881A4324
:1051300002808A8882850A880285A0420AD0A84215
:1051400008D00E4A904205D00D4A904202D00D4A36
:10515000904201D1097A01860121818230BD00008F
:10516000002C0140003401400004004000080040D1
:10517000000C0040001000400014004000400140BE
:1051800000440140004801401FB54FF41650009004
:105190000020ADF80400ADF80600ADF80800ADF849
:1051A0000C000C20114CADF80A006946204600F0B6
:1051B00045F8012240F22551204600F027F801224F
:1051C00040F22771204600F021F80121204600F02E
:1051D00013F84FF4E13401210548009400F00CF875
:1051E00001210448009400F007F81FBD0038014079
:1051F00000440040004800400029818902D041F469
:10520000005101E021F400518181704710B5C1F3D4
:10521000421301F01F040121A140012B07D0022BF2
:1052200007D01430002A026805D00A4304E00C308D
:10523000F8E71030F6E78A43026010BD30B50D463E
:10524000018A85B004464CF6FF700140E8880843A7
:105250002082A0894EF6F3110840A9882A891143BB
:105260006A8902431143A181A18A4FF6FF400140A0
:10527000A8890843A0826846FFF7F0F81B488442DB
:1052800001D1039800E00298A1890904002900EBEC
:10529000C00101EB0010296802DA4FEA410101E088
:1052A0004FEA8101B0FBF1F06422B0FBF2F14FEA6A
:1052B00001114FEA11136FF018056B4300EB8300E7
:1052C000A3891D044FF0320306D503EBC000B0FBE9
:1052D000F2F000F0070005E003EB0010B0FBF2F085
:1052E00000F00F000843208105B030BD00380140B8
:1052F000FEE72DE9F0410546FDF764F90DB32846B8
:10530000FCF742FD0446284600F0D8FB060018D002
:10531000284600F01EF90746A08B800705D5B4F992
:105320001A203946204600F0B1FC3846FCF72CFD27
:1053300007463046FCF728FD618B4183388B60833C
:105340003D83BDE8F041FDF7A3BA2DE9FF410AAF67
:105350000DF1040870CF00270097A8E8700000F056
:1053600003F804B0BDE8F0812DE9F84F0746DDE908
:105370000A65884691469A46DDF834B0FDF722F971
:10538000434CA08905432EB9A08810B304F10A004C
:10539000B0F90060701C0DD0DEB13046FCF7F4FCB3
:1053A000B0F90010B0F902200F449044B9F1000F99
:1053B00002D006E000260CE0B0F90430591A01F1E1
:1053C0000109BAF1000F04D1B0F90600801A00F10A
:1053D000010A0BF1200000B2FCF779FC0090E8B361
:1053E000A088A346401CA0800098FCF7CDFC078055
:1053F00007EB0901A0F80280491E818008EB0A0131
:10540000491EC1800C9901610446818B43F69F704F
:1054100028400143A183BBF90800009F60B1FCF75D
:10542000B3FC80463846FCF7AFFC0146B8F81400E0
:105430008882A8F8147001E0ABF808703146009833
:1054400000F0B4FBA80602D5009800F03DFAE8078A
:1054500007D0DBF8241001F1010100E013E0CBF8E4
:105460002410680602D50098FFF743FFA80706D569
:10547000A08B40F00200A083009800F0C8F9012141
:10548000009800F0FBFCFDF703FA0098BDE8F88FE8
:10549000BC01002070B5B0F9045004468668284667
:1054A000FCF772FC2168172910D004DC0E290FD0FC
:1054B000142908D104E0222910D0282903D110E0B2
:1054C000314600F0B5FA0020A06070BDA56070BD47
:1054D00021462846BDE8704000F027BA6FF07040C2
:1054E000F2E72846BDE8704000F091B9002100F0D5
:1054F0002FBA012100F02CBA0148B0F90000704722
:10550000C601002070B505000E464FF0000408D01B
:10551000FDF758F83146284601F0DCFA0446FDF75D
:10552000B7F9204670BD10B5040008D0FDF74AF861
:105530002046FCF729FCB0F91840FDF7A9F92046F0
:1055400010BD0EB515210091694600F0DFF90298F3
:105550000EBD10B5040008D0FDF734F82046FCF766
:1055600013FCB0F91640FDF793F9204610BD00007A
:105570002DE9F04F95B04FF000084746CDF80C806C
:10558000CDF810806846CDF81480FDF7E7F8FDF7F8
:1055900019F860490098B1F9001008445E4900907C
:1055A0000198B1F900100844019006A800F012FA21
:1055B0005A4C00992068884208D160680199884255
:1055C00004D1207A9DF8081088427DD0DDE90001E1
:1055D000FCF704FC5248B0F9000018B9DDE90001FD
:1055E00000F05EF9ADF81C00BDF91C0000F0A2FB54
:1055F00000286AD0207A9DF808104A4D884238D099
:10560000BDF81C00A8B3BDF91C00FCF7BDFB9DF85C
:1056100008308DF84830217A8DF84910B0F9002013
:105620000099891A1091B0F902000199081A119095
:1056300010A80C9011200A9094E80700814623726C
:105640009DF814008A46934628B1B5F90460BDF868
:105650001C00A88000E00026BDF91C000AA900F08B
:10566000FFFB84E8000E26B1304600F0F8F800B1E8
:10567000AE80217A9DF8080001433CD00C210A91AC
:10568000B5F904104FF00108BDF91C2003AE91429A
:1056900011D0A98879B108B10C9706E02068039071
:1056A000606804908DF814700C96B5F904000AA98E
:1056B00000F00CFCAF809DF808002072BDF81C00C3
:1056C00018B19DE8070001E01BE014E003AB07C33D
:1056D0009DF8140018B1BDF81C00A88005E0124820
:1056E000007808B100F0D2F8AF800C96BDF91C002C
:1056F0000AA900F0EBFB9DE8070007C4684600F02C
:10570000BBF806A800F078FBFDF7C2F815B04046DC
:10571000BDE8F08FB4010020B6010020A071002088
:10572000CA01002010020020E40100203EB5164C02
:10573000E078002827D115492081A082C863E08045
:10574000A08013490222CDE9002140F6FF720290A9
:1057500013460146FFF7F9FD04F10A0504F11C02A6
:1057600028806FF07041116000F051F8094800F096
:1057700031F9094800F02EF9B5F9000000F0A4F85D
:1057800001206070E0703EBDBC0100203C71002033
:105790003D76000808020020100200202DE9FF419C
:1057A00007000E4629D0FCF70DFF3846FCF7ECFA4F
:1057B000858B0446A8071ED5D4E90001CDE9000178
:1057C0005EB1306802907068039002A9204600F034
:1057D00009F902A96846FDF719F93946684600F04B
:1057E00009F940B140F601000540012D07D0694696
:1057F000384600F017FAFDF74BF8BDE8FF81B4F921
:105800001A20B4F91610684600F040FAF3E70021B8
:10581000FFF7C4BF7CB50D4604001FD0FCF7B4FAF7
:105820000246808B800719D529466846FDF70BF99B
:10583000002813D06946204600F0F4F92046FFF70F
:1058400072FE044608E069462046FFF7E3FF204663
:10585000FCF79AFAB0F91A40002CF4D17CBD10B5CF
:105860000446FCF7AFFE204600F092FA0446FDF72E
:105870000FF8204610BD0000D0E9002302498068DF
:105880000A60C1E90130704730D5002010B5FCF73F
:1058900099FE00F0A1FABDE81040FCF7F9BF000046
:1058A00070B504460D46FCF78DFE06482B46224691
:1058B0000021B0F9000001F0A9F90446FCF7E8FF67
:1058C000204670BDC401002070B50546FCF77AFE85
:1058D0000C4CB4F9406015B90B48B0F90850A4F865
:1058E00040502846FCF750FA0546FDF7F1FCB5F9A3
:1058F00000006064B5F90200A064FCF7C9FF3046FF
:1059000070BD00003C710020BC01002070B5040097
:105910000D4609D0FCF756FE2946204600F082FAD3
:10592000BDE87040FCF7B4BF70BD70B505460C0013
:105930000DD0FCF747FE2846FFF70BFE18B1E580B7
:10594000214600F06FFABDE87040FCF7A1BF70BDC2
:105950003EB505000C4619D0FCF734FE2846FCF78E
:1059600013FA818B14B121F0100201E041F0100212
:10597000914207D0828328200090694602942846ED
:1059800000F050FABDE83E40FCF782BF3EBD00008B
:105990001CB50D4C607820B1BDE81C400B4801F0EF
:1059A0005BB90B48B0F94000FCF7EEF9D0E9001004
:1059B000CDE90010B4F9121011B1684600F01AF8E0
:1059C000684601F049F91CBDBC010020B4710020FB
:1059D0003C71002002490A680260086070470000BC
:1059E000D40100200B46B0F90220B0F9001018468F
:1059F000FCF7A4BE70B506460C462046FCF7C4F979
:105A00000546808B80070FD529463046FCF7FEFF00
:105A1000B5F9160008B10446EFE70448B0F90000F4
:105A2000A04201D1012070BD002070BDC601002040
:105A300000224A800A8082880388D21A8A80C2881B
:105A40004088101AC880704710B5FFF782FD002803
:105A500003D0FCF799F9B0F9180010BD70B5134DDB
:105A60006878002806D0124C6069012803DD401ECA
:105A70006061002070BD287820B1002028700D489A
:105A8000006880472069401C206100F0B1FE50B1E1
:105A9000FFF77EFF0848016819B1054808308847BC
:105AA0002870012070BD6069E1E70000BC010020A2
:105AB000AC710020B0010020AC01002070B505469B
:105AC000FFF7C2FF09E0AC4201D1002407E0FCF778
:105AD0005BF9B0F91A00A84201D00400F3D12046C6
